{
  "_format": "hh-sol-artifact-1",
  "contractName": "EasyBet",
  "sourceName": "contracts/EasyBet.sol",
  "abi": [
    {
      "inputs": [],
      "stateMutability": "nonpayable",
      "type": "constructor"
    },
    {
      "anonymous": false,
      "inputs": [
        {
          "indexed": false,
          "internalType": "uint256",
          "name": "tokenId",
          "type": "uint256"
        },
        {
          "indexed": false,
          "internalType": "uint256",
          "name": "price",
          "type": "uint256"
        },
        {
          "indexed": false,
          "internalType": "address",
          "name": "owner",
          "type": "address"
        }
      ],
      "name": "BetPlaced",
      "type": "event"
    },
    {
      "inputs": [
        {
          "internalType": "uint256",
          "name": "",
          "type": "uint256"
        }
      ],
      "name": "activities",
      "outputs": [
        {
          "internalType": "address",
          "name": "owner",
          "type": "address"
        },
        {
          "internalType": "uint256",
          "name": "listedTimestamp",
          "type": "uint256"
        },
        {
          "internalType": "string",
          "name": "name",
          "type": "string"
        },
        {
          "internalType": "uint256",
          "name": "totalAmount",
          "type": "uint256"
        }
      ],
      "stateMutability": "view",
      "type": "function"
    },
    {
      "inputs": [
        {
          "internalType": "uint256",
          "name": "",
          "type": "uint256"
        }
      ],
      "name": "activitiesActive",
      "outputs": [
        {
          "internalType": "uint256",
          "name": "",
          "type": "uint256"
        }
      ],
      "stateMutability": "view",
      "type": "function"
    },
    {
      "inputs": [
        {
          "internalType": "string[]",
          "name": "choices",
          "type": "string[]"
        },
        {
          "internalType": "string",
          "name": "name",
          "type": "string"
        }
      ],
      "name": "createActivity",
      "outputs": [],
      "stateMutability": "nonpayable",
      "type": "function"
    },
    {
      "inputs": [],
      "name": "getActivities",
      "outputs": [
        {
          "components": [
            {
              "internalType": "address",
              "name": "owner",
              "type": "address"
            },
            {
              "internalType": "uint256",
              "name": "listedTimestamp",
              "type": "uint256"
            },
            {
              "internalType": "string[]",
              "name": "choices",
              "type": "string[]"
            },
            {
              "internalType": "string",
              "name": "name",
              "type": "string"
            },
            {
              "internalType": "uint256",
              "name": "totalAmount",
              "type": "uint256"
            }
          ],
          "internalType": "struct EasyBet.Activity[]",
          "name": "",
          "type": "tuple[]"
        }
      ],
      "stateMutability": "view",
      "type": "function"
    },
    {
      "inputs": [],
      "name": "getTicketPool",
      "outputs": [
        {
          "components": [
            {
              "internalType": "uint256",
              "name": "tokenId",
              "type": "uint256"
            },
            {
              "internalType": "uint256",
              "name": "price",
              "type": "uint256"
            },
            {
              "internalType": "address",
              "name": "seller",
              "type": "address"
            }
          ],
          "internalType": "struct EasyBet.TicketOnSale[]",
          "name": "",
          "type": "tuple[]"
        }
      ],
      "stateMutability": "view",
      "type": "function"
    },
    {
      "inputs": [],
      "name": "helloworld",
      "outputs": [
        {
          "internalType": "string",
          "name": "",
          "type": "string"
        }
      ],
      "stateMutability": "pure",
      "type": "function"
    },
    {
      "inputs": [
        {
          "internalType": "uint256",
          "name": "tokenId",
          "type": "uint256"
        },
        {
          "internalType": "uint256",
          "name": "price",
          "type": "uint256"
        }
      ],
      "name": "listTicket",
      "outputs": [],
      "stateMutability": "nonpayable",
      "type": "function"
    },
    {
      "inputs": [],
      "name": "manager",
      "outputs": [
        {
          "internalType": "address",
          "name": "",
          "type": "address"
        }
      ],
      "stateMutability": "view",
      "type": "function"
    },
    {
      "inputs": [],
      "name": "nextActivityId",
      "outputs": [
        {
          "internalType": "uint256",
          "name": "",
          "type": "uint256"
        }
      ],
      "stateMutability": "view",
      "type": "function"
    },
    {
      "inputs": [
        {
          "internalType": "uint256",
          "name": "amount",
          "type": "uint256"
        },
        {
          "internalType": "string",
          "name": "choice",
          "type": "string"
        },
        {
          "internalType": "uint256",
          "name": "activityId",
          "type": "uint256"
        }
      ],
      "name": "play",
      "outputs": [],
      "stateMutability": "nonpayable",
      "type": "function"
    },
    {
      "inputs": [],
      "name": "points",
      "outputs": [
        {
          "internalType": "contract Points",
          "name": "",
          "type": "address"
        }
      ],
      "stateMutability": "view",
      "type": "function"
    },
    {
      "inputs": [
        {
          "internalType": "uint256",
          "name": "activityId",
          "type": "uint256"
        },
        {
          "internalType": "string",
          "name": "choice_win",
          "type": "string"
        }
      ],
      "name": "settle",
      "outputs": [],
      "stateMutability": "nonpayable",
      "type": "function"
    },
    {
      "inputs": [],
      "name": "ticket",
      "outputs": [
        {
          "internalType": "contract Ticket",
          "name": "",
          "type": "address"
        }
      ],
      "stateMutability": "view",
      "type": "function"
    },
    {
      "inputs": [
        {
          "internalType": "uint256",
          "name": "",
          "type": "uint256"
        }
      ],
      "name": "ticketPool",
      "outputs": [
        {
          "internalType": "uint256",
          "name": "tokenId",
          "type": "uint256"
        },
        {
          "internalType": "uint256",
          "name": "price",
          "type": "uint256"
        },
        {
          "internalType": "address",
          "name": "seller",
          "type": "address"
        }
      ],
      "stateMutability": "view",
      "type": "function"
    },
    {
      "inputs": [
        {
          "internalType": "uint256",
          "name": "",
          "type": "uint256"
        }
      ],
      "name": "ticketsOnSale",
      "outputs": [
        {
          "internalType": "uint256",
          "name": "",
          "type": "uint256"
        }
      ],
      "stateMutability": "view",
      "type": "function"
    },
    {
      "inputs": [
        {
          "internalType": "uint256",
          "name": "tokenId",
          "type": "uint256"
        },
        {
          "internalType": "address",
          "name": "to",
          "type": "address"
        }
      ],
      "name": "tradeTicket",
      "outputs": [],
      "stateMutability": "nonpayable",
      "type": "function"
    }
  ],
  "bytecode": "0x60806040523480156200001157600080fd5b50604051620000209062000131565b604051809103906000f0801580156200003d573d6000803e3d6000fd5b50600360006101000a81548173ffffffffffffffffffffffffffffffffffffffff021916908373ffffffffffffffffffffffffffffffffffffffff1602179055506040516200008c906200013f565b604051809103906000f080158015620000a9573d6000803e3d6000fd5b50600460006101000a81548173ffffffffffffffffffffffffffffffffffffffff021916908373ffffffffffffffffffffffffffffffffffffffff16021790555033600760006101000a81548173ffffffffffffffffffffffffffffffffffffffff021916908373ffffffffffffffffffffffffffffffffffffffff1602179055506200014d565b6128c48062002f1683390190565b61271d80620057da83390190565b612db9806200015d6000396000f3fe608060405234801561001057600080fd5b50600436106101005760003560e01c80636cc25db7116100975780639d944324116100665780639d944324146102a4578063a24f4f25146102c0578063d31183b3146102dc578063e3a8b8c2146102f857610100565b80636cc25db71461021a57806371aa17c614610238578063888102a714610256578063959aa0651461028657610100565b8063305a905a116100d3578063305a905a146101905780633ea870b7146101ac578063481c6a75146101ca5780636179d69e146101e857610100565b80630d1657e81461010557806317157b07146101385780631be6dd64146101545780632f2f485914610172575b600080fd5b61011f600480360381019061011a9190611a82565b610328565b60405161012f9493929190611b8f565b60405180910390f35b610152600480360381019061014d9190611d10565b610400565b005b61015c6105ab565b6040516101699190611dde565b60405180910390f35b61017a6105d1565b6040516101879190611df9565b60405180910390f35b6101aa60048036038101906101a59190611e1b565b61060e565b005b6101b4610877565b6040516101c19190611e5b565b60405180910390f35b6101d261087d565b6040516101df9190611e76565b60405180910390f35b61020260048036038101906101fd9190611a82565b6108a3565b60405161021193929190611e91565b60405180910390f35b6102226108ed565b60405161022f9190611ee9565b60405180910390f35b610240610913565b60405161024d919061216d565b60405180910390f35b610270600480360381019061026b9190611a82565b610bcb565b60405161027d9190611e5b565b60405180910390f35b61028e610bef565b60405161029b9190612280565b60405180910390f35b6102be60048036038101906102b991906122a2565b610d3d565b005b6102da60048036038101906102d5919061232a565b611362565b005b6102f660048036038101906102f19190612450565b61161d565b005b610312600480360381019061030d9190611a82565b611784565b60405161031f9190611e5b565b60405180910390f35b60006020528060005260406000206000915090508060000160009054906101000a900473ffffffffffffffffffffffffffffffffffffffff1690806001015490806003018054610377906124f7565b80601f01602080910402602001604051908101604052809291908181526020018280546103a3906124f7565b80156103f05780601f106103c5576101008083540402835291602001916103f0565b820191906000526020600020905b8154815290600101906020018083116103d357829003601f168201915b5050505050908060040154905084565b6000600460009054906101000a900473ffffffffffffffffffffffffffffffffffffffff1673ffffffffffffffffffffffffffffffffffffffff166323b872dd3330876040518463ffffffff1660e01b815260040161046193929190612528565b6020604051808303816000875af1158015610480573d6000803e3d6000fd5b505050506040513d601f19601f820116820180604052508101906104a49190612597565b9050806104e6576040517f08c379a00000000000000000000000000000000000000000000000000000000081526004016104dd90612610565b60405180910390fd5b600360009054906101000a900473ffffffffffffffffffffffffffffffffffffffff1673ffffffffffffffffffffffffffffffffffffffff1663bb7fde71338487876040518563ffffffff1660e01b81526004016105479493929190612630565b600060405180830381600087803b15801561056157600080fd5b505af1158015610575573d6000803e3d6000fd5b5050505083600080848152602001908152602001600020600401600082825461059e91906126ab565b9250508190555050505050565b600460009054906101000a900473ffffffffffffffffffffffffffffffffffffffff1681565b60606040518060400160405280600b81526020017f68656c6c6f20776f726c64000000000000000000000000000000000000000000815250905090565b600360009054906101000a900473ffffffffffffffffffffffffffffffffffffffff1673ffffffffffffffffffffffffffffffffffffffff16636352211e836040518263ffffffff1660e01b81526004016106699190611e5b565b602060405180830381865afa158015610686573d6000803e3d6000fd5b505050506040513d601f19601f820116820180604052508101906106aa91906126f4565b73ffffffffffffffffffffffffffffffffffffffff163373ffffffffffffffffffffffffffffffffffffffff1614610717576040517f08c379a000000000000000000000000000000000000000000000000000000000815260040161070e9061276d565b60405180910390fd5b600360009054906101000a900473ffffffffffffffffffffffffffffffffffffffff1673ffffffffffffffffffffffffffffffffffffffff166323b872dd3330856040518463ffffffff1660e01b815260040161077693929190612528565b600060405180830381600087803b15801561079057600080fd5b505af11580156107a4573d6000803e3d6000fd5b5050505060405180606001604052808381526020018281526020013373ffffffffffffffffffffffffffffffffffffffff1681525060056000848152602001908152602001600020600082015181600001556020820151816001015560408201518160020160006101000a81548173ffffffffffffffffffffffffffffffffffffffff021916908373ffffffffffffffffffffffffffffffffffffffff16021790555090505060068290806001815401808255809150506001900390600052602060002001600090919091909150555050565b60025481565b600760009054906101000a900473ffffffffffffffffffffffffffffffffffffffff1681565b60056020528060005260406000206000915090508060000154908060010154908060020160009054906101000a900473ffffffffffffffffffffffffffffffffffffffff16905083565b600360009054906101000a900473ffffffffffffffffffffffffffffffffffffffff1681565b6060600060018054905067ffffffffffffffff81111561093657610935611be5565b5b60405190808252806020026020018201604052801561096f57816020015b61095c6118c1565b8152602001906001900390816109545790505b50905060005b600180549050811015610bc357600080600183815481106109995761099861278d565b5b906000526020600020015481526020019081526020016000206040518060a00160405290816000820160009054906101000a900473ffffffffffffffffffffffffffffffffffffffff1673ffffffffffffffffffffffffffffffffffffffff1673ffffffffffffffffffffffffffffffffffffffff1681526020016001820154815260200160028201805480602002602001604051908101604052809291908181526020016000905b82821015610aee578382906000526020600020018054610a61906124f7565b80601f0160208091040260200160405190810160405280929190818152602001828054610a8d906124f7565b8015610ada5780601f10610aaf57610100808354040283529160200191610ada565b820191906000526020600020905b815481529060010190602001808311610abd57829003601f168201915b505050505081526020019060010190610a42565b505050508152602001600382018054610b06906124f7565b80601f0160208091040260200160405190810160405280929190818152602001828054610b32906124f7565b8015610b7f5780601f10610b5457610100808354040283529160200191610b7f565b820191906000526020600020905b815481529060010190602001808311610b6257829003601f168201915b50505050508152602001600482015481525050828281518110610ba557610ba461278d565b5b60200260200101819052508080610bbb906127bc565b915050610975565b508091505090565b60018181548110610bdb57600080fd5b906000526020600020016000915090505481565b6060600060068054905067ffffffffffffffff811115610c1257610c11611be5565b5b604051908082528060200260200182016040528015610c4b57816020015b610c38611906565b815260200190600190039081610c305790505b50905060005b600680549050811015610d35576005600060068381548110610c7657610c7561278d565b5b9060005260206000200154815260200190815260200160002060405180606001604052908160008201548152602001600182015481526020016002820160009054906101000a900473ffffffffffffffffffffffffffffffffffffffff1673ffffffffffffffffffffffffffffffffffffffff1673ffffffffffffffffffffffffffffffffffffffff1681525050828281518110610d1757610d1661278d565b5b60200260200101819052508080610d2d906127bc565b915050610c51565b508091505090565b600760009054906101000a900473ffffffffffffffffffffffffffffffffffffffff1673ffffffffffffffffffffffffffffffffffffffff163373ffffffffffffffffffffffffffffffffffffffff1614610dcd576040517f08c379a0000000000000000000000000000000000000000000000000000000008152600401610dc490612876565b60405180910390fd5b6000808060008581526020019081526020016000206004015490506000600360009054906101000a900473ffffffffffffffffffffffffffffffffffffffff1673ffffffffffffffffffffffffffffffffffffffff166375794a3c6040518163ffffffff1660e01b8152600401602060405180830381865afa158015610e57573d6000803e3d6000fd5b505050506040513d601f19601f82011682018060405250810190610e7b91906128ab565b67ffffffffffffffff811115610e9457610e93611be5565b5b604051908082528060200260200182016040528015610ec25781602001602082028036833780820191505090505b50905060005b600360009054906101000a900473ffffffffffffffffffffffffffffffffffffffff1673ffffffffffffffffffffffffffffffffffffffff166375794a3c6040518163ffffffff1660e01b8152600401602060405180830381865afa158015610f35573d6000803e3d6000fd5b505050506040513d601f19601f82011682018060405250810190610f5991906128ab565b81101561113b576000806000600360009054906101000a900473ffffffffffffffffffffffffffffffffffffffff1673ffffffffffffffffffffffffffffffffffffffff1663ff99a063856040518263ffffffff1660e01b8152600401610fc09190611e5b565b600060405180830381865afa158015610fdd573d6000803e3d6000fd5b505050506040513d6000823e3d601f19601f820116820180604052508101906110069190612948565b9250925092508883148015611028575087805190602001208180519060200120145b1561112557600360009054906101000a900473ffffffffffffffffffffffffffffffffffffffff1673ffffffffffffffffffffffffffffffffffffffff16636352211e856040518263ffffffff1660e01b81526004016110889190611e5b565b602060405180830381865afa1580156110a5573d6000803e3d6000fd5b505050506040513d601f19601f820116820180604052508101906110c991906126f4565b8588815181106110dc576110db61278d565b5b602002602001019073ffffffffffffffffffffffffffffffffffffffff16908173ffffffffffffffffffffffffffffffffffffffff16815250508680611121906127bc565b9750505b5050508080611133906127bc565b915050610ec8565b506000838361114a91906129e6565b905060005b8481101561122557600460009054906101000a900473ffffffffffffffffffffffffffffffffffffffff1673ffffffffffffffffffffffffffffffffffffffff1663a9059cbb8483815181106111a8576111a761278d565b5b6020026020010151846040518363ffffffff1660e01b81526004016111ce929190612a17565b6020604051808303816000875af11580156111ed573d6000803e3d6000fd5b505050506040513d601f19601f820116820180604052508101906112119190612597565b50808061121d906127bc565b91505061114f565b50600080878152602001908152602001600020600080820160006101000a81549073ffffffffffffffffffffffffffffffffffffffff02191690556001820160009055600282016000611278919061193d565b600382016000611288919061195e565b600482016000905550506000600180549050905060005b818110156113585787600182815481106112bc576112bb61278d565b5b90600052602060002001540361134557600180836112da9190612a40565b815481106112eb576112ea61278d565b5b90600052602060002001546001828154811061130a5761130961278d565b5b9060005260206000200181905550600180548061132a57611329612a74565b5b60019003818190600052602060002001600090559055611358565b8080611350906127bc565b91505061129f565b5050505050505050565b60006005600084815260200190815260200160002060020160009054906101000a900473ffffffffffffffffffffffffffffffffffffffff16905060006005600085815260200190815260200160002060010154905080600460009054906101000a900473ffffffffffffffffffffffffffffffffffffffff1673ffffffffffffffffffffffffffffffffffffffff166370a08231856040518263ffffffff1660e01b81526004016114149190611e76565b602060405180830381865afa158015611431573d6000803e3d6000fd5b505050506040513d601f19601f8201168201806040525081019061145591906128ab565b1015611496576040517f08c379a000000000000000000000000000000000000000000000000000000000815260040161148d90612aef565b60405180910390fd5b6000600460009054906101000a900473ffffffffffffffffffffffffffffffffffffffff1673ffffffffffffffffffffffffffffffffffffffff166323b872dd8585856040518463ffffffff1660e01b81526004016114f793929190612528565b6020604051808303816000875af1158015611516573d6000803e3d6000fd5b505050506040513d601f19601f8201168201806040525081019061153a9190612597565b90508061157c576040517f08c379a000000000000000000000000000000000000000000000000000000000815260040161157390612610565b60405180910390fd5b600360009054906101000a900473ffffffffffffffffffffffffffffffffffffffff1673ffffffffffffffffffffffffffffffffffffffff166323b872dd3086886040518463ffffffff1660e01b81526004016115db93929190612528565b600060405180830381600087803b1580156115f557600080fd5b505af1158015611609573d6000803e3d6000fd5b50505050611616856117a8565b5050505050565b600760009054906101000a900473ffffffffffffffffffffffffffffffffffffffff1673ffffffffffffffffffffffffffffffffffffffff163373ffffffffffffffffffffffffffffffffffffffff16146116ad576040517f08c379a00000000000000000000000000000000000000000000000000000000081526004016116a490612876565b60405180910390fd5b6000600260008154809291906116c2906127bc565b919050559050600181908060018154018082558091505060019003906000526020600020016000909190919091505560008060008381526020019081526020016000209050338160000160006101000a81548173ffffffffffffffffffffffffffffffffffffffff021916908373ffffffffffffffffffffffffffffffffffffffff1602179055504281600101819055508381600201908051906020019061176b92919061199e565b508281600301908161177d9190612cb1565b5050505050565b6006818154811061179457600080fd5b906000526020600020016000915090505481565b6000600680549050905060005b8181101561186f5782600682815481106117d2576117d161278d565b5b90600052602060002001540361185c5760066001836117f19190612a40565b815481106118025761180161278d565b5b9060005260206000200154600682815481106118215761182061278d565b5b9060005260206000200181905550600680548061184157611840612a74565b5b6001900381819060005260206000200160009055905561186f565b8080611867906127bc565b9150506117b5565b506005600083815260200190815260200160002060008082016000905560018201600090556002820160006101000a81549073ffffffffffffffffffffffffffffffffffffffff021916905550505050565b6040518060a00160405280600073ffffffffffffffffffffffffffffffffffffffff168152602001600081526020016060815260200160608152602001600081525090565b60405180606001604052806000815260200160008152602001600073ffffffffffffffffffffffffffffffffffffffff1681525090565b508054600082559060005260206000209081019061195b91906119f7565b50565b50805461196a906124f7565b6000825580601f1061197c575061199b565b601f01602090049060005260206000209081019061199a9190611a1b565b5b50565b8280548282559060005260206000209081019282156119e6579160200282015b828111156119e55782518290816119d59190612cb1565b50916020019190600101906119be565b5b5090506119f391906119f7565b5090565b5b80821115611a175760008181611a0e919061195e565b506001016119f8565b5090565b5b80821115611a34576000816000905550600101611a1c565b5090565b6000604051905090565b600080fd5b600080fd5b6000819050919050565b611a5f81611a4c565b8114611a6a57600080fd5b50565b600081359050611a7c81611a56565b92915050565b600060208284031215611a9857611a97611a42565b5b6000611aa684828501611a6d565b91505092915050565b600073ffffffffffffffffffffffffffffffffffffffff82169050919050565b6000611ada82611aaf565b9050919050565b611aea81611acf565b82525050565b611af981611a4c565b82525050565b600081519050919050565b600082825260208201905092915050565b60005b83811015611b39578082015181840152602081019050611b1e565b60008484015250505050565b6000601f19601f8301169050919050565b6000611b6182611aff565b611b6b8185611b0a565b9350611b7b818560208601611b1b565b611b8481611b45565b840191505092915050565b6000608082019050611ba46000830187611ae1565b611bb16020830186611af0565b8181036040830152611bc38185611b56565b9050611bd26060830184611af0565b95945050505050565b600080fd5b600080fd5b7f4e487b7100000000000000000000000000000000000000000000000000000000600052604160045260246000fd5b611c1d82611b45565b810181811067ffffffffffffffff82111715611c3c57611c3b611be5565b5b80604052505050565b6000611c4f611a38565b9050611c5b8282611c14565b919050565b600067ffffffffffffffff821115611c7b57611c7a611be5565b5b611c8482611b45565b9050602081019050919050565b82818337600083830152505050565b6000611cb3611cae84611c60565b611c45565b905082815260208101848484011115611ccf57611cce611be0565b5b611cda848285611c91565b509392505050565b600082601f830112611cf757611cf6611bdb565b5b8135611d07848260208601611ca0565b91505092915050565b600080600060608486031215611d2957611d28611a42565b5b6000611d3786828701611a6d565b935050602084013567ffffffffffffffff811115611d5857611d57611a47565b5b611d6486828701611ce2565b9250506040611d7586828701611a6d565b9150509250925092565b6000819050919050565b6000611da4611d9f611d9a84611aaf565b611d7f565b611aaf565b9050919050565b6000611db682611d89565b9050919050565b6000611dc882611dab565b9050919050565b611dd881611dbd565b82525050565b6000602082019050611df36000830184611dcf565b92915050565b60006020820190508181036000830152611e138184611b56565b905092915050565b60008060408385031215611e3257611e31611a42565b5b6000611e4085828601611a6d565b9250506020611e5185828601611a6d565b9150509250929050565b6000602082019050611e706000830184611af0565b92915050565b6000602082019050611e8b6000830184611ae1565b92915050565b6000606082019050611ea66000830186611af0565b611eb36020830185611af0565b611ec06040830184611ae1565b949350505050565b6000611ed382611dab565b9050919050565b611ee381611ec8565b82525050565b6000602082019050611efe6000830184611eda565b92915050565b600081519050919050565b600082825260208201905092915050565b6000819050602082019050919050565b611f3981611acf565b82525050565b611f4881611a4c565b82525050565b600081519050919050565b600082825260208201905092915050565b6000819050602082019050919050565b600082825260208201905092915050565b6000611f9682611aff565b611fa08185611f7a565b9350611fb0818560208601611b1b565b611fb981611b45565b840191505092915050565b6000611fd08383611f8b565b905092915050565b6000602082019050919050565b6000611ff082611f4e565b611ffa8185611f59565b93508360208202850161200c85611f6a565b8060005b8581101561204857848403895281516120298582611fc4565b945061203483611fd8565b925060208a01995050600181019050612010565b50829750879550505050505092915050565b600060a0830160008301516120726000860182611f30565b5060208301516120856020860182611f3f565b506040830151848203604086015261209d8282611fe5565b915050606083015184820360608601526120b78282611f8b565b91505060808301516120cc6080860182611f3f565b508091505092915050565b60006120e3838361205a565b905092915050565b6000602082019050919050565b600061210382611f04565b61210d8185611f0f565b93508360208202850161211f85611f20565b8060005b8581101561215b578484038952815161213c85826120d7565b9450612147836120eb565b925060208a01995050600181019050612123565b50829750879550505050505092915050565b6000602082019050818103600083015261218781846120f8565b905092915050565b600081519050919050565b600082825260208201905092915050565b6000819050602082019050919050565b6060820160008201516121d16000850182611f3f565b5060208201516121e46020850182611f3f565b5060408201516121f76040850182611f30565b50505050565b600061220983836121bb565b60608301905092915050565b6000602082019050919050565b600061222d8261218f565b612237818561219a565b9350612242836121ab565b8060005b8381101561227357815161225a88826121fd565b975061226583612215565b925050600181019050612246565b5085935050505092915050565b6000602082019050818103600083015261229a8184612222565b905092915050565b600080604083850312156122b9576122b8611a42565b5b60006122c785828601611a6d565b925050602083013567ffffffffffffffff8111156122e8576122e7611a47565b5b6122f485828601611ce2565b9150509250929050565b61230781611acf565b811461231257600080fd5b50565b600081359050612324816122fe565b92915050565b6000806040838503121561234157612340611a42565b5b600061234f85828601611a6d565b925050602061236085828601612315565b9150509250929050565b600067ffffffffffffffff82111561238557612384611be5565b5b602082029050602081019050919050565b600080fd5b60006123ae6123a98461236a565b611c45565b905080838252602082019050602084028301858111156123d1576123d0612396565b5b835b8181101561241857803567ffffffffffffffff8111156123f6576123f5611bdb565b5b8086016124038982611ce2565b855260208501945050506020810190506123d3565b5050509392505050565b600082601f83011261243757612436611bdb565b5b813561244784826020860161239b565b91505092915050565b6000806040838503121561246757612466611a42565b5b600083013567ffffffffffffffff81111561248557612484611a47565b5b61249185828601612422565b925050602083013567ffffffffffffffff8111156124b2576124b1611a47565b5b6124be85828601611ce2565b9150509250929050565b7f4e487b7100000000000000000000000000000000000000000000000000000000600052602260045260246000fd5b6000600282049050600182168061250f57607f821691505b602082108103612522576125216124c8565b5b50919050565b600060608201905061253d6000830186611ae1565b61254a6020830185611ae1565b6125576040830184611af0565b949350505050565b60008115159050919050565b6125748161255f565b811461257f57600080fd5b50565b6000815190506125918161256b565b92915050565b6000602082840312156125ad576125ac611a42565b5b60006125bb84828501612582565b91505092915050565b7f5472616e73666572206661696c65640000000000000000000000000000000000600082015250565b60006125fa600f83611b0a565b9150612605826125c4565b602082019050919050565b60006020820190508181036000830152612629816125ed565b9050919050565b60006080820190506126456000830187611ae1565b6126526020830186611af0565b61265f6040830185611af0565b81810360608301526126718184611b56565b905095945050505050565b7f4e487b7100000000000000000000000000000000000000000000000000000000600052601160045260246000fd5b60006126b682611a4c565b91506126c183611a4c565b92508282019050808211156126d9576126d861267c565b5b92915050565b6000815190506126ee816122fe565b92915050565b60006020828403121561270a57612709611a42565b5b6000612718848285016126df565b91505092915050565b7f4e6f7420746865207469636b6574206f776e6572000000000000000000000000600082015250565b6000612757601483611b0a565b915061276282612721565b602082019050919050565b600060208201905081810360008301526127868161274a565b9050919050565b7f4e487b7100000000000000000000000000000000000000000000000000000000600052603260045260246000fd5b60006127c782611a4c565b91507fffffffffffffffffffffffffffffffffffffffffffffffffffffffffffffffff82036127f9576127f861267c565b5b600182019050919050565b7f4f6e6c79206d616e616765722063616e2063616c6c20746869732066756e637460008201527f696f6e0000000000000000000000000000000000000000000000000000000000602082015250565b6000612860602383611b0a565b915061286b82612804565b604082019050919050565b6000602082019050818103600083015261288f81612853565b9050919050565b6000815190506128a581611a56565b92915050565b6000602082840312156128c1576128c0611a42565b5b60006128cf84828501612896565b91505092915050565b60006128eb6128e684611c60565b611c45565b90508281526020810184848401111561290757612906611be0565b5b612912848285611b1b565b509392505050565b600082601f83011261292f5761292e611bdb565b5b815161293f8482602086016128d8565b91505092915050565b60008060006060848603121561296157612960611a42565b5b600061296f86828701612896565b935050602061298086828701612896565b925050604084015167ffffffffffffffff8111156129a1576129a0611a47565b5b6129ad8682870161291a565b9150509250925092565b7f4e487b7100000000000000000000000000000000000000000000000000000000600052601260045260246000fd5b60006129f182611a4c565b91506129fc83611a4c565b925082612a0c57612a0b6129b7565b5b828204905092915050565b6000604082019050612a2c6000830185611ae1565b612a396020830184611af0565b9392505050565b6000612a4b82611a4c565b9150612a5683611a4c565b9250828203905081811115612a6e57612a6d61267c565b5b92915050565b7f4e487b7100000000000000000000000000000000000000000000000000000000600052603160045260246000fd5b7f496e73756666696369656e7420706f696e747300000000000000000000000000600082015250565b6000612ad9601383611b0a565b9150612ae482612aa3565b602082019050919050565b60006020820190508181036000830152612b0881612acc565b9050919050565b60008190508160005260206000209050919050565b60006020601f8301049050919050565b600082821b905092915050565b600060088302612b717fffffffffffffffffffffffffffffffffffffffffffffffffffffffffffffffff82612b34565b612b7b8683612b34565b95508019841693508086168417925050509392505050565b6000612bae612ba9612ba484611a4c565b611d7f565b611a4c565b9050919050565b6000819050919050565b612bc883612b93565b612bdc612bd482612bb5565b848454612b41565b825550505050565b600090565b612bf1612be4565b612bfc818484612bbf565b505050565b5b81811015612c2057612c15600082612be9565b600181019050612c02565b5050565b601f821115612c6557612c3681612b0f565b612c3f84612b24565b81016020851015612c4e578190505b612c62612c5a85612b24565b830182612c01565b50505b505050565b600082821c905092915050565b6000612c8860001984600802612c6a565b1980831691505092915050565b6000612ca18383612c77565b9150826002028217905092915050565b612cba82611aff565b67ffffffffffffffff811115612cd357612cd2611be5565b5b612cdd82546124f7565b612ce8828285612c24565b600060209050601f831160018114612d1b5760008415612d09578287015190505b612d138582612c95565b865550612d7b565b601f198416612d2986612b0f565b60005b82811015612d5157848901518255600182019150602085019450602081019050612d2c565b86831015612d6e5784890151612d6a601f891682612c77565b8355505b6001600288020188555050505b50505050505056fea264697066735822122039e29a126d3414c87e49d365d277b39d709dd102b0ffb5e5c89bdbbe281471df64736f6c6343000814003360806040523480156200001157600080fd5b506040518060400160405280600681526020017f5469636b657400000000000000000000000000000000000000000000000000008152506040518060400160405280600381526020017f475541000000000000000000000000000000000000000000000000000000000081525081600090816200008f919062000324565b508060019081620000a1919062000324565b5050506200040b565b600081519050919050565b7f4e487b7100000000000000000000000000000000000000000000000000000000600052604160045260246000fd5b7f4e487b7100000000000000000000000000000000000000000000000000000000600052602260045260246000fd5b600060028204905060018216806200012c57607f821691505b602082108103620001425762000141620000e4565b5b50919050565b60008190508160005260206000209050919050565b60006020601f8301049050919050565b600082821b905092915050565b600060088302620001ac7fffffffffffffffffffffffffffffffffffffffffffffffffffffffffffffffff826200016d565b620001b886836200016d565b95508019841693508086168417925050509392505050565b6000819050919050565b6000819050919050565b600062000205620001ff620001f984620001d0565b620001da565b620001d0565b9050919050565b6000819050919050565b6200022183620001e4565b6200023962000230826200020c565b8484546200017a565b825550505050565b600090565b6200025062000241565b6200025d81848462000216565b505050565b5b8181101562000285576200027960008262000246565b60018101905062000263565b5050565b601f821115620002d4576200029e8162000148565b620002a9846200015d565b81016020851015620002b9578190505b620002d1620002c8856200015d565b83018262000262565b50505b505050565b600082821c905092915050565b6000620002f960001984600802620002d9565b1980831691505092915050565b6000620003148383620002e6565b9150826002028217905092915050565b6200032f82620000aa565b67ffffffffffffffff8111156200034b576200034a620000b5565b5b62000357825462000113565b6200036482828562000289565b600060209050601f8311600181146200039c576000841562000387578287015190505b62000393858262000306565b86555062000403565b601f198416620003ac8662000148565b60005b82811015620003d657848901518255600182019150602085019450602081019050620003af565b86831015620003f65784890151620003f2601f891682620002e6565b8355505b6001600288020188555050505b505050505050565b6124a9806200041b6000396000f3fe608060405234801561001057600080fd5b506004361061010b5760003560e01c806370a08231116100a2578063b88d4fde11610071578063b88d4fde146102cc578063bb7fde71146102e8578063c87b56dd14610304578063e985e9c514610334578063ff99a063146103645761010b565b806370a082311461024457806375794a3c1461027457806395d89b4114610292578063a22cb465146102b05761010b565b80630bc5c3f5116100de5780630bc5c3f5146101aa57806323b872dd146101dc57806342842e0e146101f85780636352211e146102145761010b565b806301ffc9a71461011057806306fdde0314610140578063081812fc1461015e578063095ea7b31461018e575b600080fd5b61012a6004803603810190610125919061189c565b610396565b60405161013791906118e4565b60405180910390f35b610148610478565b604051610155919061198f565b60405180910390f35b610178600480360381019061017391906119e7565b61050a565b6040516101859190611a55565b60405180910390f35b6101a860048036038101906101a39190611a9c565b610526565b005b6101c460048036038101906101bf91906119e7565b61053c565b6040516101d393929190611aeb565b60405180910390f35b6101f660048036038101906101f19190611b29565b6105ee565b005b610212600480360381019061020d9190611b29565b6106f0565b005b61022e600480360381019061022991906119e7565b610710565b60405161023b9190611a55565b60405180910390f35b61025e60048036038101906102599190611b7c565b610722565b60405161026b9190611ba9565b60405180910390f35b61027c6107dc565b6040516102899190611ba9565b60405180910390f35b61029a6107e2565b6040516102a7919061198f565b60405180910390f35b6102ca60048036038101906102c59190611bf0565b610874565b005b6102e660048036038101906102e19190611d65565b61088a565b005b61030260048036038101906102fd9190611e89565b6108a7565b005b61031e600480360381019061031991906119e7565b61092e565b60405161032b919061198f565b60405180910390f35b61034e60048036038101906103499190611f0c565b610997565b60405161035b91906118e4565b60405180910390f35b61037e600480360381019061037991906119e7565b610a2b565b60405161038d93929190611aeb565b60405180910390f35b60007f80ac58cd000000000000000000000000000000000000000000000000000000007bffffffffffffffffffffffffffffffffffffffffffffffffffffffff1916827bffffffffffffffffffffffffffffffffffffffffffffffffffffffff1916148061046157507f5b5e139f000000000000000000000000000000000000000000000000000000007bffffffffffffffffffffffffffffffffffffffffffffffffffffffff1916827bffffffffffffffffffffffffffffffffffffffffffffffffffffffff1916145b80610471575061047082610aef565b5b9050919050565b60606000805461048790611f7b565b80601f01602080910402602001604051908101604052809291908181526020018280546104b390611f7b565b80156105005780601f106104d557610100808354040283529160200191610500565b820191906000526020600020905b8154815290600101906020018083116104e357829003601f168201915b5050505050905090565b600061051582610b59565b5061051f82610be1565b9050919050565b6105388282610533610c1e565b610c26565b5050565b600660205280600052604060002060009150905080600001549080600101549080600201805461056b90611f7b565b80601f016020809104026020016040519081016040528092919081815260200182805461059790611f7b565b80156105e45780601f106105b9576101008083540402835291602001916105e4565b820191906000526020600020905b8154815290600101906020018083116105c757829003601f168201915b5050505050905083565b600073ffffffffffffffffffffffffffffffffffffffff168273ffffffffffffffffffffffffffffffffffffffff16036106605760006040517f64a0ae920000000000000000000000000000000000000000000000000000000081526004016106579190611a55565b60405180910390fd5b6000610674838361066f610c1e565b610c38565b90508373ffffffffffffffffffffffffffffffffffffffff168173ffffffffffffffffffffffffffffffffffffffff16146106ea578382826040517f64283d7b0000000000000000000000000000000000000000000000000000000081526004016106e193929190611fac565b60405180910390fd5b50505050565b61070b8383836040518060200160405280600081525061088a565b505050565b600061071b82610b59565b9050919050565b60008073ffffffffffffffffffffffffffffffffffffffff168273ffffffffffffffffffffffffffffffffffffffff16036107955760006040517f89c62b6400000000000000000000000000000000000000000000000000000000815260040161078c9190611a55565b60405180910390fd5b600360008373ffffffffffffffffffffffffffffffffffffffff1673ffffffffffffffffffffffffffffffffffffffff168152602001908152602001600020549050919050565b60075481565b6060600180546107f190611f7b565b80601f016020809104026020016040519081016040528092919081815260200182805461081d90611f7b565b801561086a5780601f1061083f5761010080835404028352916020019161086a565b820191906000526020600020905b81548152906001019060200180831161084d57829003601f168201915b5050505050905090565b61088661087f610c1e565b8383610e52565b5050565b6108958484846105ee565b6108a184848484610fc1565b50505050565b6000600760008154809291906108bc90612012565b9190505590506108cc8582611178565b60405180606001604052808581526020018481526020018381525060066000838152602001908152602001600020600082015181600001556020820151816001015560408201518160020190816109239190612206565b509050505050505050565b606061093982610b59565b506000610944611271565b90506000815111610964576040518060200160405280600081525061098f565b8061096e84611288565b60405160200161097f929190612314565b6040516020818303038152906040525b915050919050565b6000600560008473ffffffffffffffffffffffffffffffffffffffff1673ffffffffffffffffffffffffffffffffffffffff16815260200190815260200160002060008373ffffffffffffffffffffffffffffffffffffffff1673ffffffffffffffffffffffffffffffffffffffff16815260200190815260200160002060009054906101000a900460ff16905092915050565b600080606060006006600086815260200190815260200160002090508060000154816001015482600201808054610a6190611f7b565b80601f0160208091040260200160405190810160405280929190818152602001828054610a8d90611f7b565b8015610ada5780601f10610aaf57610100808354040283529160200191610ada565b820191906000526020600020905b815481529060010190602001808311610abd57829003601f168201915b50505050509050935093509350509193909250565b60007f01ffc9a7000000000000000000000000000000000000000000000000000000007bffffffffffffffffffffffffffffffffffffffffffffffffffffffff1916827bffffffffffffffffffffffffffffffffffffffffffffffffffffffff1916149050919050565b600080610b6583611356565b9050600073ffffffffffffffffffffffffffffffffffffffff168173ffffffffffffffffffffffffffffffffffffffff1603610bd857826040517f7e273289000000000000000000000000000000000000000000000000000000008152600401610bcf9190611ba9565b60405180910390fd5b80915050919050565b60006004600083815260200190815260200160002060009054906101000a900473ffffffffffffffffffffffffffffffffffffffff169050919050565b600033905090565b610c338383836001611393565b505050565b600080610c4484611356565b9050600073ffffffffffffffffffffffffffffffffffffffff168373ffffffffffffffffffffffffffffffffffffffff1614610c8657610c85818486611558565b5b600073ffffffffffffffffffffffffffffffffffffffff168173ffffffffffffffffffffffffffffffffffffffff1614610d1757610cc8600085600080611393565b6001600360008373ffffffffffffffffffffffffffffffffffffffff1673ffffffffffffffffffffffffffffffffffffffff168152602001908152602001600020600082825403925050819055505b600073ffffffffffffffffffffffffffffffffffffffff168573ffffffffffffffffffffffffffffffffffffffff1614610d9a576001600360008773ffffffffffffffffffffffffffffffffffffffff1673ffffffffffffffffffffffffffffffffffffffff168152602001908152602001600020600082825401925050819055505b846002600086815260200190815260200160002060006101000a81548173ffffffffffffffffffffffffffffffffffffffff021916908373ffffffffffffffffffffffffffffffffffffffff160217905550838573ffffffffffffffffffffffffffffffffffffffff168273ffffffffffffffffffffffffffffffffffffffff167fddf252ad1be2c89b69c2b068fc378daa952ba7f163c4a11628f55a4df523b3ef60405160405180910390a4809150509392505050565b600073ffffffffffffffffffffffffffffffffffffffff168273ffffffffffffffffffffffffffffffffffffffff1603610ec357816040517f5b08ba18000000000000000000000000000000000000000000000000000000008152600401610eba9190611a55565b60405180910390fd5b80600560008573ffffffffffffffffffffffffffffffffffffffff1673ffffffffffffffffffffffffffffffffffffffff16815260200190815260200160002060008473ffffffffffffffffffffffffffffffffffffffff1673ffffffffffffffffffffffffffffffffffffffff16815260200190815260200160002060006101000a81548160ff0219169083151502179055508173ffffffffffffffffffffffffffffffffffffffff168373ffffffffffffffffffffffffffffffffffffffff167f17307eab39ab6107e8899845ad3d59bd9653f200f220920489ca2b5937696c3183604051610fb491906118e4565b60405180910390a3505050565b60008373ffffffffffffffffffffffffffffffffffffffff163b1115611172578273ffffffffffffffffffffffffffffffffffffffff1663150b7a02611005610c1e565b8685856040518563ffffffff1660e01b8152600401611027949392919061238d565b6020604051808303816000875af192505050801561106357506040513d601f19601f8201168201806040525081019061106091906123ee565b60015b6110e7573d8060008114611093576040519150601f19603f3d011682016040523d82523d6000602084013e611098565b606091505b5060008151036110df57836040517f64a0ae920000000000000000000000000000000000000000000000000000000081526004016110d69190611a55565b60405180910390fd5b805181602001fd5b63150b7a0260e01b7bffffffffffffffffffffffffffffffffffffffffffffffffffffffff1916817bffffffffffffffffffffffffffffffffffffffffffffffffffffffff19161461117057836040517f64a0ae920000000000000000000000000000000000000000000000000000000081526004016111679190611a55565b60405180910390fd5b505b50505050565b600073ffffffffffffffffffffffffffffffffffffffff168273ffffffffffffffffffffffffffffffffffffffff16036111ea5760006040517f64a0ae920000000000000000000000000000000000000000000000000000000081526004016111e19190611a55565b60405180910390fd5b60006111f883836000610c38565b9050600073ffffffffffffffffffffffffffffffffffffffff168173ffffffffffffffffffffffffffffffffffffffff161461126c5760006040517f73c6ac6e0000000000000000000000000000000000000000000000000000000081526004016112639190611a55565b60405180910390fd5b505050565b606060405180602001604052806000815250905090565b6060600060016112978461161c565b01905060008167ffffffffffffffff8111156112b6576112b5611c3a565b5b6040519080825280601f01601f1916602001820160405280156112e85781602001600182028036833780820191505090505b509050600082602001820190505b60011561134b578080600190039150507f3031323334353637383961626364656600000000000000000000000000000000600a86061a8153600a858161133f5761133e61241b565b5b049450600085036112f6575b819350505050919050565b60006002600083815260200190815260200160002060009054906101000a900473ffffffffffffffffffffffffffffffffffffffff169050919050565b80806113cc5750600073ffffffffffffffffffffffffffffffffffffffff168273ffffffffffffffffffffffffffffffffffffffff1614155b156115005760006113dc84610b59565b9050600073ffffffffffffffffffffffffffffffffffffffff168373ffffffffffffffffffffffffffffffffffffffff161415801561144757508273ffffffffffffffffffffffffffffffffffffffff168173ffffffffffffffffffffffffffffffffffffffff1614155b801561145a57506114588184610997565b155b1561149c57826040517fa9fbf51f0000000000000000000000000000000000000000000000000000000081526004016114939190611a55565b60405180910390fd5b81156114fe57838573ffffffffffffffffffffffffffffffffffffffff168273ffffffffffffffffffffffffffffffffffffffff167f8c5be1e5ebec7d5bd14f71427d1e84f3dd0314c0f7b2291e5b200ac8c7c3b92560405160405180910390a45b505b836004600085815260200190815260200160002060006101000a81548173ffffffffffffffffffffffffffffffffffffffff021916908373ffffffffffffffffffffffffffffffffffffffff16021790555050505050565b61156383838361176f565b61161757600073ffffffffffffffffffffffffffffffffffffffff168373ffffffffffffffffffffffffffffffffffffffff16036115d857806040517f7e2732890000000000000000000000000000000000000000000000000000000081526004016115cf9190611ba9565b60405180910390fd5b81816040517f177e802f00000000000000000000000000000000000000000000000000000000815260040161160e92919061244a565b60405180910390fd5b505050565b600080600090507a184f03e93ff9f4daa797ed6e38ed64bf6a1f010000000000000000831061167a577a184f03e93ff9f4daa797ed6e38ed64bf6a1f01000000000000000083816116705761166f61241b565b5b0492506040810190505b6d04ee2d6d415b85acef810000000083106116b7576d04ee2d6d415b85acef810000000083816116ad576116ac61241b565b5b0492506020810190505b662386f26fc1000083106116e657662386f26fc1000083816116dc576116db61241b565b5b0492506010810190505b6305f5e100831061170f576305f5e10083816117055761170461241b565b5b0492506008810190505b612710831061173457612710838161172a5761172961241b565b5b0492506004810190505b60648310611757576064838161174d5761174c61241b565b5b0492506002810190505b600a8310611766576001810190505b80915050919050565b60008073ffffffffffffffffffffffffffffffffffffffff168373ffffffffffffffffffffffffffffffffffffffff161415801561182757508273ffffffffffffffffffffffffffffffffffffffff168473ffffffffffffffffffffffffffffffffffffffff1614806117e857506117e78484610997565b5b8061182657508273ffffffffffffffffffffffffffffffffffffffff1661180e83610be1565b73ffffffffffffffffffffffffffffffffffffffff16145b5b90509392505050565b6000604051905090565b600080fd5b600080fd5b60007fffffffff0000000000000000000000000000000000000000000000000000000082169050919050565b61187981611844565b811461188457600080fd5b50565b60008135905061189681611870565b92915050565b6000602082840312156118b2576118b161183a565b5b60006118c084828501611887565b91505092915050565b60008115159050919050565b6118de816118c9565b82525050565b60006020820190506118f960008301846118d5565b92915050565b600081519050919050565b600082825260208201905092915050565b60005b8381101561193957808201518184015260208101905061191e565b60008484015250505050565b6000601f19601f8301169050919050565b6000611961826118ff565b61196b818561190a565b935061197b81856020860161191b565b61198481611945565b840191505092915050565b600060208201905081810360008301526119a98184611956565b905092915050565b6000819050919050565b6119c4816119b1565b81146119cf57600080fd5b50565b6000813590506119e1816119bb565b92915050565b6000602082840312156119fd576119fc61183a565b5b6000611a0b848285016119d2565b91505092915050565b600073ffffffffffffffffffffffffffffffffffffffff82169050919050565b6000611a3f82611a14565b9050919050565b611a4f81611a34565b82525050565b6000602082019050611a6a6000830184611a46565b92915050565b611a7981611a34565b8114611a8457600080fd5b50565b600081359050611a9681611a70565b92915050565b60008060408385031215611ab357611ab261183a565b5b6000611ac185828601611a87565b9250506020611ad2858286016119d2565b9150509250929050565b611ae5816119b1565b82525050565b6000606082019050611b006000830186611adc565b611b0d6020830185611adc565b8181036040830152611b1f8184611956565b9050949350505050565b600080600060608486031215611b4257611b4161183a565b5b6000611b5086828701611a87565b9350506020611b6186828701611a87565b9250506040611b72868287016119d2565b9150509250925092565b600060208284031215611b9257611b9161183a565b5b6000611ba084828501611a87565b91505092915050565b6000602082019050611bbe6000830184611adc565b92915050565b611bcd816118c9565b8114611bd857600080fd5b50565b600081359050611bea81611bc4565b92915050565b60008060408385031215611c0757611c0661183a565b5b6000611c1585828601611a87565b9250506020611c2685828601611bdb565b9150509250929050565b600080fd5b600080fd5b7f4e487b7100000000000000000000000000000000000000000000000000000000600052604160045260246000fd5b611c7282611945565b810181811067ffffffffffffffff82111715611c9157611c90611c3a565b5b80604052505050565b6000611ca4611830565b9050611cb08282611c69565b919050565b600067ffffffffffffffff821115611cd057611ccf611c3a565b5b611cd982611945565b9050602081019050919050565b82818337600083830152505050565b6000611d08611d0384611cb5565b611c9a565b905082815260208101848484011115611d2457611d23611c35565b5b611d2f848285611ce6565b509392505050565b600082601f830112611d4c57611d4b611c30565b5b8135611d5c848260208601611cf5565b91505092915050565b60008060008060808587031215611d7f57611d7e61183a565b5b6000611d8d87828801611a87565b9450506020611d9e87828801611a87565b9350506040611daf878288016119d2565b925050606085013567ffffffffffffffff811115611dd057611dcf61183f565b5b611ddc87828801611d37565b91505092959194509250565b600067ffffffffffffffff821115611e0357611e02611c3a565b5b611e0c82611945565b9050602081019050919050565b6000611e2c611e2784611de8565b611c9a565b905082815260208101848484011115611e4857611e47611c35565b5b611e53848285611ce6565b509392505050565b600082601f830112611e7057611e6f611c30565b5b8135611e80848260208601611e19565b91505092915050565b60008060008060808587031215611ea357611ea261183a565b5b6000611eb187828801611a87565b9450506020611ec2878288016119d2565b9350506040611ed3878288016119d2565b925050606085013567ffffffffffffffff811115611ef457611ef361183f565b5b611f0087828801611e5b565b91505092959194509250565b60008060408385031215611f2357611f2261183a565b5b6000611f3185828601611a87565b9250506020611f4285828601611a87565b9150509250929050565b7f4e487b7100000000000000000000000000000000000000000000000000000000600052602260045260246000fd5b60006002820490506001821680611f9357607f821691505b602082108103611fa657611fa5611f4c565b5b50919050565b6000606082019050611fc16000830186611a46565b611fce6020830185611adc565b611fdb6040830184611a46565b949350505050565b7f4e487b7100000000000000000000000000000000000000000000000000000000600052601160045260246000fd5b600061201d826119b1565b91507fffffffffffffffffffffffffffffffffffffffffffffffffffffffffffffffff820361204f5761204e611fe3565b5b600182019050919050565b60008190508160005260206000209050919050565b60006020601f8301049050919050565b600082821b905092915050565b6000600883026120bc7fffffffffffffffffffffffffffffffffffffffffffffffffffffffffffffffff8261207f565b6120c6868361207f565b95508019841693508086168417925050509392505050565b6000819050919050565b60006121036120fe6120f9846119b1565b6120de565b6119b1565b9050919050565b6000819050919050565b61211d836120e8565b6121316121298261210a565b84845461208c565b825550505050565b600090565b612146612139565b612151818484612114565b505050565b5b818110156121755761216a60008261213e565b600181019050612157565b5050565b601f8211156121ba5761218b8161205a565b6121948461206f565b810160208510156121a3578190505b6121b76121af8561206f565b830182612156565b50505b505050565b600082821c905092915050565b60006121dd600019846008026121bf565b1980831691505092915050565b60006121f683836121cc565b9150826002028217905092915050565b61220f826118ff565b67ffffffffffffffff81111561222857612227611c3a565b5b6122328254611f7b565b61223d828285612179565b600060209050601f831160018114612270576000841561225e578287015190505b61226885826121ea565b8655506122d0565b601f19841661227e8661205a565b60005b828110156122a657848901518255600182019150602085019450602081019050612281565b868310156122c357848901516122bf601f8916826121cc565b8355505b6001600288020188555050505b505050505050565b600081905092915050565b60006122ee826118ff565b6122f881856122d8565b935061230881856020860161191b565b80840191505092915050565b600061232082856122e3565b915061232c82846122e3565b91508190509392505050565b600081519050919050565b600082825260208201905092915050565b600061235f82612338565b6123698185612343565b935061237981856020860161191b565b61238281611945565b840191505092915050565b60006080820190506123a26000830187611a46565b6123af6020830186611a46565b6123bc6040830185611adc565b81810360608301526123ce8184612354565b905095945050505050565b6000815190506123e881611870565b92915050565b6000602082840312156124045761240361183a565b5b6000612412848285016123d9565b91505092915050565b7f4e487b7100000000000000000000000000000000000000000000000000000000600052601260045260246000fd5b600060408201905061245f6000830185611a46565b61246c6020830184611adc565b939250505056fea2646970667358221220b5aebc70815c354128ab7f7fcb8fe2774d8df450db6fecfbf0fbed3b251f907664736f6c634300081400336101606040523480156200001257600080fd5b506040518060400160405280600681526020017f506f696e74730000000000000000000000000000000000000000000000000000815250806040518060400160405280600181526020017f31000000000000000000000000000000000000000000000000000000000000008152506040518060400160405280600681526020017f506f696e747300000000000000000000000000000000000000000000000000008152506040518060400160405280600381526020017f4d544b00000000000000000000000000000000000000000000000000000000008152508160039081620000fd91906200056f565b5080600490816200010f91906200056f565b50505062000128600583620001c960201b90919060201c565b610120818152505062000146600682620001c960201b90919060201c565b6101408181525050818051906020012060e08181525050808051906020012061010081815250504660a08181525050620001856200022160201b60201c565b608081815250503073ffffffffffffffffffffffffffffffffffffffff1660c08173ffffffffffffffffffffffffffffffffffffffff168152505050505062000879565b6000602083511015620001ef57620001e7836200027e60201b60201c565b90506200021b565b826200020183620002eb60201b60201c565b60000190816200021291906200056f565b5060ff60001b90505b92915050565b60007f8b73c3c69bb8fe3d512ecc4cf759cc79239f7b179b0ffacaa9a75d522b39400f60e05161010051463060405160200162000263959493929190620006c7565b60405160208183030381529060405280519060200120905090565b600080829050601f81511115620002ce57826040517f305a27a9000000000000000000000000000000000000000000000000000000008152600401620002c59190620007b3565b60405180910390fd5b805181620002dc9062000809565b60001c1760001b915050919050565b6000819050919050565b600081519050919050565b7f4e487b7100000000000000000000000000000000000000000000000000000000600052604160045260246000fd5b7f4e487b7100000000000000000000000000000000000000000000000000000000600052602260045260246000fd5b600060028204905060018216806200037757607f821691505b6020821081036200038d576200038c6200032f565b5b50919050565b60008190508160005260206000209050919050565b60006020601f8301049050919050565b600082821b905092915050565b600060088302620003f77fffffffffffffffffffffffffffffffffffffffffffffffffffffffffffffffff82620003b8565b620004038683620003b8565b95508019841693508086168417925050509392505050565b6000819050919050565b6000819050919050565b6000620004506200044a62000444846200041b565b62000425565b6200041b565b9050919050565b6000819050919050565b6200046c836200042f565b620004846200047b8262000457565b848454620003c5565b825550505050565b600090565b6200049b6200048c565b620004a881848462000461565b505050565b5b81811015620004d057620004c460008262000491565b600181019050620004ae565b5050565b601f8211156200051f57620004e98162000393565b620004f484620003a8565b8101602085101562000504578190505b6200051c6200051385620003a8565b830182620004ad565b50505b505050565b600082821c905092915050565b6000620005446000198460080262000524565b1980831691505092915050565b60006200055f838362000531565b9150826002028217905092915050565b6200057a82620002f5565b67ffffffffffffffff81111562000596576200059562000300565b5b620005a282546200035e565b620005af828285620004d4565b600060209050601f831160018114620005e75760008415620005d2578287015190505b620005de858262000551565b8655506200064e565b601f198416620005f78662000393565b60005b828110156200062157848901518255600182019150602085019450602081019050620005fa565b868310156200064157848901516200063d601f89168262000531565b8355505b6001600288020188555050505b505050505050565b6000819050919050565b6200066b8162000656565b82525050565b6200067c816200041b565b82525050565b600073ffffffffffffffffffffffffffffffffffffffff82169050919050565b6000620006af8262000682565b9050919050565b620006c181620006a2565b82525050565b600060a082019050620006de600083018862000660565b620006ed602083018762000660565b620006fc604083018662000660565b6200070b606083018562000671565b6200071a6080830184620006b6565b9695505050505050565b600082825260208201905092915050565b60005b838110156200075557808201518184015260208101905062000738565b60008484015250505050565b6000601f19601f8301169050919050565b60006200077f82620002f5565b6200078b818562000724565b93506200079d81856020860162000735565b620007a88162000761565b840191505092915050565b60006020820190508181036000830152620007cf818462000772565b905092915050565b600081519050919050565b6000819050602082019050919050565b600062000800825162000656565b80915050919050565b60006200081682620007d7565b826200082284620007e2565b90506200082f81620007f2565b9250602082101562000872576200086d7fffffffffffffffffffffffffffffffffffffffffffffffffffffffffffffffff83602003600802620003b8565b831692505b5050919050565b60805160a05160c05160e051610100516101205161014051611e49620008d46000396000610bde01526000610ba3015260006110f3015260006110d201526000610a1c01526000610a7201526000610a9b0152611e496000f3fe608060405234801561001057600080fd5b50600436106100ea5760003560e01c806370a082311161008c57806395d89b411161006657806395d89b4114610255578063a9059cbb14610273578063d505accf146102a3578063dd62ed3e146102bf576100ea565b806370a08231146101d15780637ecebe001461020157806384b0196e14610231576100ea565b806323b872dd116100c857806323b872dd1461015b578063313ce5671461018b5780633644e515146101a95780633884d635146101c7576100ea565b806306fdde03146100ef578063095ea7b31461010d57806318160ddd1461013d575b600080fd5b6100f76102ef565b60405161010491906115e0565b60405180910390f35b6101276004803603810190610122919061169b565b610381565b60405161013491906116f6565b60405180910390f35b6101456103a4565b6040516101529190611720565b60405180910390f35b6101756004803603810190610170919061173b565b6103ae565b60405161018291906116f6565b60405180910390f35b6101936103dd565b6040516101a091906117aa565b60405180910390f35b6101b16103e6565b6040516101be91906117de565b60405180910390f35b6101cf6103f5565b005b6101eb60048036038101906101e691906117f9565b6104ee565b6040516101f89190611720565b60405180910390f35b61021b600480360381019061021691906117f9565b610536565b6040516102289190611720565b60405180910390f35b610239610548565b60405161024c979695949392919061192e565b60405180910390f35b61025d6105f2565b60405161026a91906115e0565b60405180910390f35b61028d6004803603810190610288919061169b565b610684565b60405161029a91906116f6565b60405180910390f35b6102bd60048036038101906102b89190611a0a565b6106a7565b005b6102d960048036038101906102d49190611aac565b6107ef565b6040516102e69190611720565b60405180910390f35b6060600380546102fe90611b1b565b80601f016020809104026020016040519081016040528092919081815260200182805461032a90611b1b565b80156103775780601f1061034c57610100808354040283529160200191610377565b820191906000526020600020905b81548152906001019060200180831161035a57829003601f168201915b5050505050905090565b60008061038c610876565b905061039981858561087e565b600191505092915050565b6000600254905090565b6000806103b9610876565b90506103c6858285610890565b6103d1858585610924565b60019150509392505050565b60006012905090565b60006103f0610a18565b905090565b60001515600860003373ffffffffffffffffffffffffffffffffffffffff1673ffffffffffffffffffffffffffffffffffffffff16815260200190815260200160002060009054906101000a900460ff16151514610488576040517f08c379a000000000000000000000000000000000000000000000000000000000815260040161047f90611bbe565b60405180910390fd5b61049433612710610acf565b6001600860003373ffffffffffffffffffffffffffffffffffffffff1673ffffffffffffffffffffffffffffffffffffffff16815260200190815260200160002060006101000a81548160ff021916908315150217905550565b60008060008373ffffffffffffffffffffffffffffffffffffffff1673ffffffffffffffffffffffffffffffffffffffff168152602001908152602001600020549050919050565b600061054182610b51565b9050919050565b60006060806000806000606061055c610b9a565b610564610bd5565b46306000801b600067ffffffffffffffff81111561058557610584611bde565b5b6040519080825280602002602001820160405280156105b35781602001602082028036833780820191505090505b507f0f00000000000000000000000000000000000000000000000000000000000000959493929190965096509650965096509650965090919293949596565b60606004805461060190611b1b565b80601f016020809104026020016040519081016040528092919081815260200182805461062d90611b1b565b801561067a5780601f1061064f5761010080835404028352916020019161067a565b820191906000526020600020905b81548152906001019060200180831161065d57829003601f168201915b5050505050905090565b60008061068f610876565b905061069c818585610924565b600191505092915050565b834211156106ec57836040517f627913020000000000000000000000000000000000000000000000000000000081526004016106e39190611720565b60405180910390fd5b60007f6e71edae12b1b97f4d1f60370fef10105fa2faae0126114a169c64845d6126c988888861071b8c610c10565b8960405160200161073196959493929190611c0d565b604051602081830303815290604052805190602001209050600061075482610c67565b9050600061076482878787610c81565b90508973ffffffffffffffffffffffffffffffffffffffff168173ffffffffffffffffffffffffffffffffffffffff16146107d857808a6040517f4b800e460000000000000000000000000000000000000000000000000000000081526004016107cf929190611c6e565b60405180910390fd5b6107e38a8a8a61087e565b50505050505050505050565b6000600160008473ffffffffffffffffffffffffffffffffffffffff1673ffffffffffffffffffffffffffffffffffffffff16815260200190815260200160002060008373ffffffffffffffffffffffffffffffffffffffff1673ffffffffffffffffffffffffffffffffffffffff16815260200190815260200160002054905092915050565b600033905090565b61088b8383836001610cb1565b505050565b600061089c84846107ef565b90507fffffffffffffffffffffffffffffffffffffffffffffffffffffffffffffffff811461091e578181101561090e578281836040517ffb8f41b200000000000000000000000000000000000000000000000000000000815260040161090593929190611c97565b60405180910390fd5b61091d84848484036000610cb1565b5b50505050565b600073ffffffffffffffffffffffffffffffffffffffff168373ffffffffffffffffffffffffffffffffffffffff16036109965760006040517f96c6fd1e00000000000000000000000000000000000000000000000000000000815260040161098d9190611cce565b60405180910390fd5b600073ffffffffffffffffffffffffffffffffffffffff168273ffffffffffffffffffffffffffffffffffffffff1603610a085760006040517fec442f050000000000000000000000000000000000000000000000000000000081526004016109ff9190611cce565b60405180910390fd5b610a13838383610e88565b505050565b60007f000000000000000000000000000000000000000000000000000000000000000073ffffffffffffffffffffffffffffffffffffffff163073ffffffffffffffffffffffffffffffffffffffff16148015610a9457507f000000000000000000000000000000000000000000000000000000000000000046145b15610ac1577f00000000000000000000000000000000000000000000000000000000000000009050610acc565b610ac96110ad565b90505b90565b600073ffffffffffffffffffffffffffffffffffffffff168273ffffffffffffffffffffffffffffffffffffffff1603610b415760006040517fec442f05000000000000000000000000000000000000000000000000000000008152600401610b389190611cce565b60405180910390fd5b610b4d60008383610e88565b5050565b6000600760008373ffffffffffffffffffffffffffffffffffffffff1673ffffffffffffffffffffffffffffffffffffffff168152602001908152602001600020549050919050565b6060610bd060057f000000000000000000000000000000000000000000000000000000000000000061114390919063ffffffff16565b905090565b6060610c0b60067f000000000000000000000000000000000000000000000000000000000000000061114390919063ffffffff16565b905090565b6000600760008373ffffffffffffffffffffffffffffffffffffffff1673ffffffffffffffffffffffffffffffffffffffff1681526020019081526020016000206000815480929190600101919050559050919050565b6000610c7a610c74610a18565b836111f3565b9050919050565b600080600080610c9388888888611234565b925092509250610ca38282611328565b829350505050949350505050565b600073ffffffffffffffffffffffffffffffffffffffff168473ffffffffffffffffffffffffffffffffffffffff1603610d235760006040517fe602df05000000000000000000000000000000000000000000000000000000008152600401610d1a9190611cce565b60405180910390fd5b600073ffffffffffffffffffffffffffffffffffffffff168373ffffffffffffffffffffffffffffffffffffffff1603610d955760006040517f94280d62000000000000000000000000000000000000000000000000000000008152600401610d8c9190611cce565b60405180910390fd5b81600160008673ffffffffffffffffffffffffffffffffffffffff1673ffffffffffffffffffffffffffffffffffffffff16815260200190815260200160002060008573ffffffffffffffffffffffffffffffffffffffff1673ffffffffffffffffffffffffffffffffffffffff168152602001908152602001600020819055508015610e82578273ffffffffffffffffffffffffffffffffffffffff168473ffffffffffffffffffffffffffffffffffffffff167f8c5be1e5ebec7d5bd14f71427d1e84f3dd0314c0f7b2291e5b200ac8c7c3b92584604051610e799190611720565b60405180910390a35b50505050565b600073ffffffffffffffffffffffffffffffffffffffff168373ffffffffffffffffffffffffffffffffffffffff1603610eda578060026000828254610ece9190611d18565b92505081905550610fad565b60008060008573ffffffffffffffffffffffffffffffffffffffff1673ffffffffffffffffffffffffffffffffffffffff16815260200190815260200160002054905081811015610f66578381836040517fe450d38c000000000000000000000000000000000000000000000000000000008152600401610f5d93929190611c97565b60405180910390fd5b8181036000808673ffffffffffffffffffffffffffffffffffffffff1673ffffffffffffffffffffffffffffffffffffffff16815260200190815260200160002081905550505b600073ffffffffffffffffffffffffffffffffffffffff168273ffffffffffffffffffffffffffffffffffffffff1603610ff65780600260008282540392505081905550611043565b806000808473ffffffffffffffffffffffffffffffffffffffff1673ffffffffffffffffffffffffffffffffffffffff168152602001908152602001600020600082825401925050819055505b8173ffffffffffffffffffffffffffffffffffffffff168373ffffffffffffffffffffffffffffffffffffffff167fddf252ad1be2c89b69c2b068fc378daa952ba7f163c4a11628f55a4df523b3ef836040516110a09190611720565b60405180910390a3505050565b60007f8b73c3c69bb8fe3d512ecc4cf759cc79239f7b179b0ffacaa9a75d522b39400f7f00000000000000000000000000000000000000000000000000000000000000007f00000000000000000000000000000000000000000000000000000000000000004630604051602001611128959493929190611d4c565b60405160208183030381529060405280519060200120905090565b606060ff60001b8314611160576111598361148c565b90506111ed565b81805461116c90611b1b565b80601f016020809104026020016040519081016040528092919081815260200182805461119890611b1b565b80156111e55780601f106111ba576101008083540402835291602001916111e5565b820191906000526020600020905b8154815290600101906020018083116111c857829003601f168201915b505050505090505b92915050565b60006040517f190100000000000000000000000000000000000000000000000000000000000081528360028201528260228201526042812091505092915050565b60008060007f7fffffffffffffffffffffffffffffff5d576e7357a4501ddfe92f46681b20a08460001c111561127457600060038592509250925061131e565b6000600188888888604051600081526020016040526040516112999493929190611d9f565b6020604051602081039080840390855afa1580156112bb573d6000803e3d6000fd5b505050602060405103519050600073ffffffffffffffffffffffffffffffffffffffff168173ffffffffffffffffffffffffffffffffffffffff160361130f57600060016000801b9350935093505061131e565b8060008060001b935093509350505b9450945094915050565b6000600381111561133c5761133b611de4565b5b82600381111561134f5761134e611de4565b5b0315611488576001600381111561136957611368611de4565b5b82600381111561137c5761137b611de4565b5b036113b3576040517ff645eedf00000000000000000000000000000000000000000000000000000000815260040160405180910390fd5b600260038111156113c7576113c6611de4565b5b8260038111156113da576113d9611de4565b5b0361141f578060001c6040517ffce698f70000000000000000000000000000000000000000000000000000000081526004016114169190611720565b60405180910390fd5b60038081111561143257611431611de4565b5b82600381111561144557611444611de4565b5b0361148757806040517fd78bce0c00000000000000000000000000000000000000000000000000000000815260040161147e91906117de565b60405180910390fd5b5b5050565b6060600061149983611500565b90506000602067ffffffffffffffff8111156114b8576114b7611bde565b5b6040519080825280601f01601f1916602001820160405280156114ea5781602001600182028036833780820191505090505b5090508181528360208201528092505050919050565b60008060ff8360001c169050601f811115611547576040517fb3512b0c00000000000000000000000000000000000000000000000000000000815260040160405180910390fd5b80915050919050565b600081519050919050565b600082825260208201905092915050565b60005b8381101561158a57808201518184015260208101905061156f565b60008484015250505050565b6000601f19601f8301169050919050565b60006115b282611550565b6115bc818561155b565b93506115cc81856020860161156c565b6115d581611596565b840191505092915050565b600060208201905081810360008301526115fa81846115a7565b905092915050565b600080fd5b600073ffffffffffffffffffffffffffffffffffffffff82169050919050565b600061163282611607565b9050919050565b61164281611627565b811461164d57600080fd5b50565b60008135905061165f81611639565b92915050565b6000819050919050565b61167881611665565b811461168357600080fd5b50565b6000813590506116958161166f565b92915050565b600080604083850312156116b2576116b1611602565b5b60006116c085828601611650565b92505060206116d185828601611686565b9150509250929050565b60008115159050919050565b6116f0816116db565b82525050565b600060208201905061170b60008301846116e7565b92915050565b61171a81611665565b82525050565b60006020820190506117356000830184611711565b92915050565b60008060006060848603121561175457611753611602565b5b600061176286828701611650565b935050602061177386828701611650565b925050604061178486828701611686565b9150509250925092565b600060ff82169050919050565b6117a48161178e565b82525050565b60006020820190506117bf600083018461179b565b92915050565b6000819050919050565b6117d8816117c5565b82525050565b60006020820190506117f360008301846117cf565b92915050565b60006020828403121561180f5761180e611602565b5b600061181d84828501611650565b91505092915050565b60007fff0000000000000000000000000000000000000000000000000000000000000082169050919050565b61185b81611826565b82525050565b61186a81611627565b82525050565b600081519050919050565b600082825260208201905092915050565b6000819050602082019050919050565b6118a581611665565b82525050565b60006118b7838361189c565b60208301905092915050565b6000602082019050919050565b60006118db82611870565b6118e5818561187b565b93506118f08361188c565b8060005b8381101561192157815161190888826118ab565b9750611913836118c3565b9250506001810190506118f4565b5085935050505092915050565b600060e082019050611943600083018a611852565b818103602083015261195581896115a7565b9050818103604083015261196981886115a7565b90506119786060830187611711565b6119856080830186611861565b61199260a08301856117cf565b81810360c08301526119a481846118d0565b905098975050505050505050565b6119bb8161178e565b81146119c657600080fd5b50565b6000813590506119d8816119b2565b92915050565b6119e7816117c5565b81146119f257600080fd5b50565b600081359050611a04816119de565b92915050565b600080600080600080600060e0888a031215611a2957611a28611602565b5b6000611a378a828b01611650565b9750506020611a488a828b01611650565b9650506040611a598a828b01611686565b9550506060611a6a8a828b01611686565b9450506080611a7b8a828b016119c9565b93505060a0611a8c8a828b016119f5565b92505060c0611a9d8a828b016119f5565b91505092959891949750929550565b60008060408385031215611ac357611ac2611602565b5b6000611ad185828601611650565b9250506020611ae285828601611650565b9150509250929050565b7f4e487b7100000000000000000000000000000000000000000000000000000000600052602260045260246000fd5b60006002820490506001821680611b3357607f821691505b602082108103611b4657611b45611aec565b5b50919050565b7f5468697320757365722068617320636c61696d65642061697264726f7020616c60008201527f7265616479000000000000000000000000000000000000000000000000000000602082015250565b6000611ba860258361155b565b9150611bb382611b4c565b604082019050919050565b60006020820190508181036000830152611bd781611b9b565b9050919050565b7f4e487b7100000000000000000000000000000000000000000000000000000000600052604160045260246000fd5b600060c082019050611c2260008301896117cf565b611c2f6020830188611861565b611c3c6040830187611861565b611c496060830186611711565b611c566080830185611711565b611c6360a0830184611711565b979650505050505050565b6000604082019050611c836000830185611861565b611c906020830184611861565b9392505050565b6000606082019050611cac6000830186611861565b611cb96020830185611711565b611cc66040830184611711565b949350505050565b6000602082019050611ce36000830184611861565b92915050565b7f4e487b7100000000000000000000000000000000000000000000000000000000600052601160045260246000fd5b6000611d2382611665565b9150611d2e83611665565b9250828201905080821115611d4657611d45611ce9565b5b92915050565b600060a082019050611d6160008301886117cf565b611d6e60208301876117cf565b611d7b60408301866117cf565b611d886060830185611711565b611d956080830184611861565b9695505050505050565b6000608082019050611db460008301876117cf565b611dc1602083018661179b565b611dce60408301856117cf565b611ddb60608301846117cf565b95945050505050565b7f4e487b7100000000000000000000000000000000000000000000000000000000600052602160045260246000fdfea2646970667358221220e12a7e4f10be3ec233b3124ce56a5adeba052e4fde6778f2e2e05e71e05943b464736f6c63430008140033",
  "linkReferences": {},
  "deployedLinkReferences": {}
}