{
  "_format": "hh-sol-artifact-1",
  "contractName": "Ticket",
  "sourceName": "contracts/Ticket.sol",
  "abi": [
    {
      "inputs": [],
      "stateMutability": "nonpayable",
      "type": "constructor"
    },
    {
      "inputs": [
        {
          "internalType": "address",
          "name": "sender",
          "type": "address"
        },
        {
          "internalType": "uint256",
          "name": "tokenId",
          "type": "uint256"
        },
        {
          "internalType": "address",
          "name": "owner",
          "type": "address"
        }
      ],
      "name": "ERC721IncorrectOwner",
      "type": "error"
    },
    {
      "inputs": [
        {
          "internalType": "address",
          "name": "operator",
          "type": "address"
        },
        {
          "internalType": "uint256",
          "name": "tokenId",
          "type": "uint256"
        }
      ],
      "name": "ERC721InsufficientApproval",
      "type": "error"
    },
    {
      "inputs": [
        {
          "internalType": "address",
          "name": "approver",
          "type": "address"
        }
      ],
      "name": "ERC721InvalidApprover",
      "type": "error"
    },
    {
      "inputs": [
        {
          "internalType": "address",
          "name": "operator",
          "type": "address"
        }
      ],
      "name": "ERC721InvalidOperator",
      "type": "error"
    },
    {
      "inputs": [
        {
          "internalType": "address",
          "name": "owner",
          "type": "address"
        }
      ],
      "name": "ERC721InvalidOwner",
      "type": "error"
    },
    {
      "inputs": [
        {
          "internalType": "address",
          "name": "receiver",
          "type": "address"
        }
      ],
      "name": "ERC721InvalidReceiver",
      "type": "error"
    },
    {
      "inputs": [
        {
          "internalType": "address",
          "name": "sender",
          "type": "address"
        }
      ],
      "name": "ERC721InvalidSender",
      "type": "error"
    },
    {
      "inputs": [
        {
          "internalType": "uint256",
          "name": "tokenId",
          "type": "uint256"
        }
      ],
      "name": "ERC721NonexistentToken",
      "type": "error"
    },
    {
      "anonymous": false,
      "inputs": [
        {
          "indexed": true,
          "internalType": "address",
          "name": "owner",
          "type": "address"
        },
        {
          "indexed": true,
          "internalType": "address",
          "name": "approved",
          "type": "address"
        },
        {
          "indexed": true,
          "internalType": "uint256",
          "name": "tokenId",
          "type": "uint256"
        }
      ],
      "name": "Approval",
      "type": "event"
    },
    {
      "anonymous": false,
      "inputs": [
        {
          "indexed": true,
          "internalType": "address",
          "name": "owner",
          "type": "address"
        },
        {
          "indexed": true,
          "internalType": "address",
          "name": "operator",
          "type": "address"
        },
        {
          "indexed": false,
          "internalType": "bool",
          "name": "approved",
          "type": "bool"
        }
      ],
      "name": "ApprovalForAll",
      "type": "event"
    },
    {
      "anonymous": false,
      "inputs": [
        {
          "indexed": true,
          "internalType": "address",
          "name": "from",
          "type": "address"
        },
        {
          "indexed": true,
          "internalType": "address",
          "name": "to",
          "type": "address"
        },
        {
          "indexed": true,
          "internalType": "uint256",
          "name": "tokenId",
          "type": "uint256"
        }
      ],
      "name": "Transfer",
      "type": "event"
    },
    {
      "inputs": [
        {
          "internalType": "address",
          "name": "to",
          "type": "address"
        },
        {
          "internalType": "uint256",
          "name": "tokenId",
          "type": "uint256"
        }
      ],
      "name": "approve",
      "outputs": [],
      "stateMutability": "nonpayable",
      "type": "function"
    },
    {
      "inputs": [
        {
          "internalType": "address",
          "name": "owner",
          "type": "address"
        }
      ],
      "name": "balanceOf",
      "outputs": [
        {
          "internalType": "uint256",
          "name": "",
          "type": "uint256"
        }
      ],
      "stateMutability": "view",
      "type": "function"
    },
    {
      "inputs": [
        {
          "internalType": "uint256",
          "name": "tokenId",
          "type": "uint256"
        }
      ],
      "name": "getApproved",
      "outputs": [
        {
          "internalType": "address",
          "name": "",
          "type": "address"
        }
      ],
      "stateMutability": "view",
      "type": "function"
    },
    {
      "inputs": [
        {
          "internalType": "uint256",
          "name": "tokenId",
          "type": "uint256"
        }
      ],
      "name": "getTicketInfo",
      "outputs": [
        {
          "internalType": "uint256",
          "name": "activityId",
          "type": "uint256"
        },
        {
          "internalType": "uint256",
          "name": "amount",
          "type": "uint256"
        },
        {
          "internalType": "string",
          "name": "choice",
          "type": "string"
        }
      ],
      "stateMutability": "view",
      "type": "function"
    },
    {
      "inputs": [
        {
          "internalType": "address",
          "name": "owner",
          "type": "address"
        },
        {
          "internalType": "address",
          "name": "operator",
          "type": "address"
        }
      ],
      "name": "isApprovedForAll",
      "outputs": [
        {
          "internalType": "bool",
          "name": "",
          "type": "bool"
        }
      ],
      "stateMutability": "view",
      "type": "function"
    },
    {
      "inputs": [
        {
          "internalType": "address",
          "name": "to",
          "type": "address"
        },
        {
          "internalType": "uint256",
          "name": "activityId",
          "type": "uint256"
        },
        {
          "internalType": "uint256",
          "name": "amount",
          "type": "uint256"
        },
        {
          "internalType": "string",
          "name": "choice",
          "type": "string"
        }
      ],
      "name": "mint",
      "outputs": [],
      "stateMutability": "nonpayable",
      "type": "function"
    },
    {
      "inputs": [],
      "name": "name",
      "outputs": [
        {
          "internalType": "string",
          "name": "",
          "type": "string"
        }
      ],
      "stateMutability": "view",
      "type": "function"
    },
    {
      "inputs": [],
      "name": "nextTokenId",
      "outputs": [
        {
          "internalType": "uint256",
          "name": "",
          "type": "uint256"
        }
      ],
      "stateMutability": "view",
      "type": "function"
    },
    {
      "inputs": [
        {
          "internalType": "uint256",
          "name": "tokenId",
          "type": "uint256"
        }
      ],
      "name": "ownerOf",
      "outputs": [
        {
          "internalType": "address",
          "name": "",
          "type": "address"
        }
      ],
      "stateMutability": "view",
      "type": "function"
    },
    {
      "inputs": [
        {
          "internalType": "address",
          "name": "from",
          "type": "address"
        },
        {
          "internalType": "address",
          "name": "to",
          "type": "address"
        },
        {
          "internalType": "uint256",
          "name": "tokenId",
          "type": "uint256"
        }
      ],
      "name": "safeTransferFrom",
      "outputs": [],
      "stateMutability": "nonpayable",
      "type": "function"
    },
    {
      "inputs": [
        {
          "internalType": "address",
          "name": "from",
          "type": "address"
        },
        {
          "internalType": "address",
          "name": "to",
          "type": "address"
        },
        {
          "internalType": "uint256",
          "name": "tokenId",
          "type": "uint256"
        },
        {
          "internalType": "bytes",
          "name": "data",
          "type": "bytes"
        }
      ],
      "name": "safeTransferFrom",
      "outputs": [],
      "stateMutability": "nonpayable",
      "type": "function"
    },
    {
      "inputs": [
        {
          "internalType": "address",
          "name": "operator",
          "type": "address"
        },
        {
          "internalType": "bool",
          "name": "approved",
          "type": "bool"
        }
      ],
      "name": "setApprovalForAll",
      "outputs": [],
      "stateMutability": "nonpayable",
      "type": "function"
    },
    {
      "inputs": [
        {
          "internalType": "bytes4",
          "name": "interfaceId",
          "type": "bytes4"
        }
      ],
      "name": "supportsInterface",
      "outputs": [
        {
          "internalType": "bool",
          "name": "",
          "type": "bool"
        }
      ],
      "stateMutability": "view",
      "type": "function"
    },
    {
      "inputs": [],
      "name": "symbol",
      "outputs": [
        {
          "internalType": "string",
          "name": "",
          "type": "string"
        }
      ],
      "stateMutability": "view",
      "type": "function"
    },
    {
      "inputs": [
        {
          "internalType": "uint256",
          "name": "",
          "type": "uint256"
        }
      ],
      "name": "ticketInfos",
      "outputs": [
        {
          "internalType": "uint256",
          "name": "activityId",
          "type": "uint256"
        },
        {
          "internalType": "uint256",
          "name": "amount",
          "type": "uint256"
        },
        {
          "internalType": "string",
          "name": "choice",
          "type": "string"
        }
      ],
      "stateMutability": "view",
      "type": "function"
    },
    {
      "inputs": [
        {
          "internalType": "uint256",
          "name": "tokenId",
          "type": "uint256"
        }
      ],
      "name": "tokenURI",
      "outputs": [
        {
          "internalType": "string",
          "name": "",
          "type": "string"
        }
      ],
      "stateMutability": "view",
      "type": "function"
    },
    {
      "inputs": [
        {
          "internalType": "address",
          "name": "from",
          "type": "address"
        },
        {
          "internalType": "address",
          "name": "to",
          "type": "address"
        },
        {
          "internalType": "uint256",
          "name": "tokenId",
          "type": "uint256"
        }
      ],
      "name": "transferFrom",
      "outputs": [],
      "stateMutability": "nonpayable",
      "type": "function"
    }
  ],
  "bytecode": "0x60806040523480156200001157600080fd5b506040518060400160405280600681526020017f5469636b657400000000000000000000000000000000000000000000000000008152506040518060400160405280600381526020017f475541000000000000000000000000000000000000000000000000000000000081525081600090816200008f919062000324565b508060019081620000a1919062000324565b5050506200040b565b600081519050919050565b7f4e487b7100000000000000000000000000000000000000000000000000000000600052604160045260246000fd5b7f4e487b7100000000000000000000000000000000000000000000000000000000600052602260045260246000fd5b600060028204905060018216806200012c57607f821691505b602082108103620001425762000141620000e4565b5b50919050565b60008190508160005260206000209050919050565b60006020601f8301049050919050565b600082821b905092915050565b600060088302620001ac7fffffffffffffffffffffffffffffffffffffffffffffffffffffffffffffffff826200016d565b620001b886836200016d565b95508019841693508086168417925050509392505050565b6000819050919050565b6000819050919050565b600062000205620001ff620001f984620001d0565b620001da565b620001d0565b9050919050565b6000819050919050565b6200022183620001e4565b6200023962000230826200020c565b8484546200017a565b825550505050565b600090565b6200025062000241565b6200025d81848462000216565b505050565b5b8181101562000285576200027960008262000246565b60018101905062000263565b5050565b601f821115620002d4576200029e8162000148565b620002a9846200015d565b81016020851015620002b9578190505b620002d1620002c8856200015d565b83018262000262565b50505b505050565b600082821c905092915050565b6000620002f960001984600802620002d9565b1980831691505092915050565b6000620003148383620002e6565b9150826002028217905092915050565b6200032f82620000aa565b67ffffffffffffffff8111156200034b576200034a620000b5565b5b62000357825462000113565b6200036482828562000289565b600060209050601f8311600181146200039c576000841562000387578287015190505b62000393858262000306565b86555062000403565b601f198416620003ac8662000148565b60005b82811015620003d657848901518255600182019150602085019450602081019050620003af565b86831015620003f65784890151620003f2601f891682620002e6565b8355505b6001600288020188555050505b505050505050565b6124a9806200041b6000396000f3fe608060405234801561001057600080fd5b506004361061010b5760003560e01c806370a08231116100a2578063b88d4fde11610071578063b88d4fde146102cc578063bb7fde71146102e8578063c87b56dd14610304578063e985e9c514610334578063ff99a063146103645761010b565b806370a082311461024457806375794a3c1461027457806395d89b4114610292578063a22cb465146102b05761010b565b80630bc5c3f5116100de5780630bc5c3f5146101aa57806323b872dd146101dc57806342842e0e146101f85780636352211e146102145761010b565b806301ffc9a71461011057806306fdde0314610140578063081812fc1461015e578063095ea7b31461018e575b600080fd5b61012a6004803603810190610125919061189c565b610396565b60405161013791906118e4565b60405180910390f35b610148610478565b604051610155919061198f565b60405180910390f35b610178600480360381019061017391906119e7565b61050a565b6040516101859190611a55565b60405180910390f35b6101a860048036038101906101a39190611a9c565b610526565b005b6101c460048036038101906101bf91906119e7565b61053c565b6040516101d393929190611aeb565b60405180910390f35b6101f660048036038101906101f19190611b29565b6105ee565b005b610212600480360381019061020d9190611b29565b6106f0565b005b61022e600480360381019061022991906119e7565b610710565b60405161023b9190611a55565b60405180910390f35b61025e60048036038101906102599190611b7c565b610722565b60405161026b9190611ba9565b60405180910390f35b61027c6107dc565b6040516102899190611ba9565b60405180910390f35b61029a6107e2565b6040516102a7919061198f565b60405180910390f35b6102ca60048036038101906102c59190611bf0565b610874565b005b6102e660048036038101906102e19190611d65565b61088a565b005b61030260048036038101906102fd9190611e89565b6108a7565b005b61031e600480360381019061031991906119e7565b61092e565b60405161032b919061198f565b60405180910390f35b61034e60048036038101906103499190611f0c565b610997565b60405161035b91906118e4565b60405180910390f35b61037e600480360381019061037991906119e7565b610a2b565b60405161038d93929190611aeb565b60405180910390f35b60007f80ac58cd000000000000000000000000000000000000000000000000000000007bffffffffffffffffffffffffffffffffffffffffffffffffffffffff1916827bffffffffffffffffffffffffffffffffffffffffffffffffffffffff1916148061046157507f5b5e139f000000000000000000000000000000000000000000000000000000007bffffffffffffffffffffffffffffffffffffffffffffffffffffffff1916827bffffffffffffffffffffffffffffffffffffffffffffffffffffffff1916145b80610471575061047082610aef565b5b9050919050565b60606000805461048790611f7b565b80601f01602080910402602001604051908101604052809291908181526020018280546104b390611f7b565b80156105005780601f106104d557610100808354040283529160200191610500565b820191906000526020600020905b8154815290600101906020018083116104e357829003601f168201915b5050505050905090565b600061051582610b59565b5061051f82610be1565b9050919050565b6105388282610533610c1e565b610c26565b5050565b600660205280600052604060002060009150905080600001549080600101549080600201805461056b90611f7b565b80601f016020809104026020016040519081016040528092919081815260200182805461059790611f7b565b80156105e45780601f106105b9576101008083540402835291602001916105e4565b820191906000526020600020905b8154815290600101906020018083116105c757829003601f168201915b5050505050905083565b600073ffffffffffffffffffffffffffffffffffffffff168273ffffffffffffffffffffffffffffffffffffffff16036106605760006040517f64a0ae920000000000000000000000000000000000000000000000000000000081526004016106579190611a55565b60405180910390fd5b6000610674838361066f610c1e565b610c38565b90508373ffffffffffffffffffffffffffffffffffffffff168173ffffffffffffffffffffffffffffffffffffffff16146106ea578382826040517f64283d7b0000000000000000000000000000000000000000000000000000000081526004016106e193929190611fac565b60405180910390fd5b50505050565b61070b8383836040518060200160405280600081525061088a565b505050565b600061071b82610b59565b9050919050565b60008073ffffffffffffffffffffffffffffffffffffffff168273ffffffffffffffffffffffffffffffffffffffff16036107955760006040517f89c62b6400000000000000000000000000000000000000000000000000000000815260040161078c9190611a55565b60405180910390fd5b600360008373ffffffffffffffffffffffffffffffffffffffff1673ffffffffffffffffffffffffffffffffffffffff168152602001908152602001600020549050919050565b60075481565b6060600180546107f190611f7b565b80601f016020809104026020016040519081016040528092919081815260200182805461081d90611f7b565b801561086a5780601f1061083f5761010080835404028352916020019161086a565b820191906000526020600020905b81548152906001019060200180831161084d57829003601f168201915b5050505050905090565b61088661087f610c1e565b8383610e52565b5050565b6108958484846105ee565b6108a184848484610fc1565b50505050565b6000600760008154809291906108bc90612012565b9190505590506108cc8582611178565b60405180606001604052808581526020018481526020018381525060066000838152602001908152602001600020600082015181600001556020820151816001015560408201518160020190816109239190612206565b509050505050505050565b606061093982610b59565b506000610944611271565b90506000815111610964576040518060200160405280600081525061098f565b8061096e84611288565b60405160200161097f929190612314565b6040516020818303038152906040525b915050919050565b6000600560008473ffffffffffffffffffffffffffffffffffffffff1673ffffffffffffffffffffffffffffffffffffffff16815260200190815260200160002060008373ffffffffffffffffffffffffffffffffffffffff1673ffffffffffffffffffffffffffffffffffffffff16815260200190815260200160002060009054906101000a900460ff16905092915050565b600080606060006006600086815260200190815260200160002090508060000154816001015482600201808054610a6190611f7b565b80601f0160208091040260200160405190810160405280929190818152602001828054610a8d90611f7b565b8015610ada5780601f10610aaf57610100808354040283529160200191610ada565b820191906000526020600020905b815481529060010190602001808311610abd57829003601f168201915b50505050509050935093509350509193909250565b60007f01ffc9a7000000000000000000000000000000000000000000000000000000007bffffffffffffffffffffffffffffffffffffffffffffffffffffffff1916827bffffffffffffffffffffffffffffffffffffffffffffffffffffffff1916149050919050565b600080610b6583611356565b9050600073ffffffffffffffffffffffffffffffffffffffff168173ffffffffffffffffffffffffffffffffffffffff1603610bd857826040517f7e273289000000000000000000000000000000000000000000000000000000008152600401610bcf9190611ba9565b60405180910390fd5b80915050919050565b60006004600083815260200190815260200160002060009054906101000a900473ffffffffffffffffffffffffffffffffffffffff169050919050565b600033905090565b610c338383836001611393565b505050565b600080610c4484611356565b9050600073ffffffffffffffffffffffffffffffffffffffff168373ffffffffffffffffffffffffffffffffffffffff1614610c8657610c85818486611558565b5b600073ffffffffffffffffffffffffffffffffffffffff168173ffffffffffffffffffffffffffffffffffffffff1614610d1757610cc8600085600080611393565b6001600360008373ffffffffffffffffffffffffffffffffffffffff1673ffffffffffffffffffffffffffffffffffffffff168152602001908152602001600020600082825403925050819055505b600073ffffffffffffffffffffffffffffffffffffffff168573ffffffffffffffffffffffffffffffffffffffff1614610d9a576001600360008773ffffffffffffffffffffffffffffffffffffffff1673ffffffffffffffffffffffffffffffffffffffff168152602001908152602001600020600082825401925050819055505b846002600086815260200190815260200160002060006101000a81548173ffffffffffffffffffffffffffffffffffffffff021916908373ffffffffffffffffffffffffffffffffffffffff160217905550838573ffffffffffffffffffffffffffffffffffffffff168273ffffffffffffffffffffffffffffffffffffffff167fddf252ad1be2c89b69c2b068fc378daa952ba7f163c4a11628f55a4df523b3ef60405160405180910390a4809150509392505050565b600073ffffffffffffffffffffffffffffffffffffffff168273ffffffffffffffffffffffffffffffffffffffff1603610ec357816040517f5b08ba18000000000000000000000000000000000000000000000000000000008152600401610eba9190611a55565b60405180910390fd5b80600560008573ffffffffffffffffffffffffffffffffffffffff1673ffffffffffffffffffffffffffffffffffffffff16815260200190815260200160002060008473ffffffffffffffffffffffffffffffffffffffff1673ffffffffffffffffffffffffffffffffffffffff16815260200190815260200160002060006101000a81548160ff0219169083151502179055508173ffffffffffffffffffffffffffffffffffffffff168373ffffffffffffffffffffffffffffffffffffffff167f17307eab39ab6107e8899845ad3d59bd9653f200f220920489ca2b5937696c3183604051610fb491906118e4565b60405180910390a3505050565b60008373ffffffffffffffffffffffffffffffffffffffff163b1115611172578273ffffffffffffffffffffffffffffffffffffffff1663150b7a02611005610c1e565b8685856040518563ffffffff1660e01b8152600401611027949392919061238d565b6020604051808303816000875af192505050801561106357506040513d601f19601f8201168201806040525081019061106091906123ee565b60015b6110e7573d8060008114611093576040519150601f19603f3d011682016040523d82523d6000602084013e611098565b606091505b5060008151036110df57836040517f64a0ae920000000000000000000000000000000000000000000000000000000081526004016110d69190611a55565b60405180910390fd5b805181602001fd5b63150b7a0260e01b7bffffffffffffffffffffffffffffffffffffffffffffffffffffffff1916817bffffffffffffffffffffffffffffffffffffffffffffffffffffffff19161461117057836040517f64a0ae920000000000000000000000000000000000000000000000000000000081526004016111679190611a55565b60405180910390fd5b505b50505050565b600073ffffffffffffffffffffffffffffffffffffffff168273ffffffffffffffffffffffffffffffffffffffff16036111ea5760006040517f64a0ae920000000000000000000000000000000000000000000000000000000081526004016111e19190611a55565b60405180910390fd5b60006111f883836000610c38565b9050600073ffffffffffffffffffffffffffffffffffffffff168173ffffffffffffffffffffffffffffffffffffffff161461126c5760006040517f73c6ac6e0000000000000000000000000000000000000000000000000000000081526004016112639190611a55565b60405180910390fd5b505050565b606060405180602001604052806000815250905090565b6060600060016112978461161c565b01905060008167ffffffffffffffff8111156112b6576112b5611c3a565b5b6040519080825280601f01601f1916602001820160405280156112e85781602001600182028036833780820191505090505b509050600082602001820190505b60011561134b578080600190039150507f3031323334353637383961626364656600000000000000000000000000000000600a86061a8153600a858161133f5761133e61241b565b5b049450600085036112f6575b819350505050919050565b60006002600083815260200190815260200160002060009054906101000a900473ffffffffffffffffffffffffffffffffffffffff169050919050565b80806113cc5750600073ffffffffffffffffffffffffffffffffffffffff168273ffffffffffffffffffffffffffffffffffffffff1614155b156115005760006113dc84610b59565b9050600073ffffffffffffffffffffffffffffffffffffffff168373ffffffffffffffffffffffffffffffffffffffff161415801561144757508273ffffffffffffffffffffffffffffffffffffffff168173ffffffffffffffffffffffffffffffffffffffff1614155b801561145a57506114588184610997565b155b1561149c57826040517fa9fbf51f0000000000000000000000000000000000000000000000000000000081526004016114939190611a55565b60405180910390fd5b81156114fe57838573ffffffffffffffffffffffffffffffffffffffff168273ffffffffffffffffffffffffffffffffffffffff167f8c5be1e5ebec7d5bd14f71427d1e84f3dd0314c0f7b2291e5b200ac8c7c3b92560405160405180910390a45b505b836004600085815260200190815260200160002060006101000a81548173ffffffffffffffffffffffffffffffffffffffff021916908373ffffffffffffffffffffffffffffffffffffffff16021790555050505050565b61156383838361176f565b61161757600073ffffffffffffffffffffffffffffffffffffffff168373ffffffffffffffffffffffffffffffffffffffff16036115d857806040517f7e2732890000000000000000000000000000000000000000000000000000000081526004016115cf9190611ba9565b60405180910390fd5b81816040517f177e802f00000000000000000000000000000000000000000000000000000000815260040161160e92919061244a565b60405180910390fd5b505050565b600080600090507a184f03e93ff9f4daa797ed6e38ed64bf6a1f010000000000000000831061167a577a184f03e93ff9f4daa797ed6e38ed64bf6a1f01000000000000000083816116705761166f61241b565b5b0492506040810190505b6d04ee2d6d415b85acef810000000083106116b7576d04ee2d6d415b85acef810000000083816116ad576116ac61241b565b5b0492506020810190505b662386f26fc1000083106116e657662386f26fc1000083816116dc576116db61241b565b5b0492506010810190505b6305f5e100831061170f576305f5e10083816117055761170461241b565b5b0492506008810190505b612710831061173457612710838161172a5761172961241b565b5b0492506004810190505b60648310611757576064838161174d5761174c61241b565b5b0492506002810190505b600a8310611766576001810190505b80915050919050565b60008073ffffffffffffffffffffffffffffffffffffffff168373ffffffffffffffffffffffffffffffffffffffff161415801561182757508273ffffffffffffffffffffffffffffffffffffffff168473ffffffffffffffffffffffffffffffffffffffff1614806117e857506117e78484610997565b5b8061182657508273ffffffffffffffffffffffffffffffffffffffff1661180e83610be1565b73ffffffffffffffffffffffffffffffffffffffff16145b5b90509392505050565b6000604051905090565b600080fd5b600080fd5b60007fffffffff0000000000000000000000000000000000000000000000000000000082169050919050565b61187981611844565b811461188457600080fd5b50565b60008135905061189681611870565b92915050565b6000602082840312156118b2576118b161183a565b5b60006118c084828501611887565b91505092915050565b60008115159050919050565b6118de816118c9565b82525050565b60006020820190506118f960008301846118d5565b92915050565b600081519050919050565b600082825260208201905092915050565b60005b8381101561193957808201518184015260208101905061191e565b60008484015250505050565b6000601f19601f8301169050919050565b6000611961826118ff565b61196b818561190a565b935061197b81856020860161191b565b61198481611945565b840191505092915050565b600060208201905081810360008301526119a98184611956565b905092915050565b6000819050919050565b6119c4816119b1565b81146119cf57600080fd5b50565b6000813590506119e1816119bb565b92915050565b6000602082840312156119fd576119fc61183a565b5b6000611a0b848285016119d2565b91505092915050565b600073ffffffffffffffffffffffffffffffffffffffff82169050919050565b6000611a3f82611a14565b9050919050565b611a4f81611a34565b82525050565b6000602082019050611a6a6000830184611a46565b92915050565b611a7981611a34565b8114611a8457600080fd5b50565b600081359050611a9681611a70565b92915050565b60008060408385031215611ab357611ab261183a565b5b6000611ac185828601611a87565b9250506020611ad2858286016119d2565b9150509250929050565b611ae5816119b1565b82525050565b6000606082019050611b006000830186611adc565b611b0d6020830185611adc565b8181036040830152611b1f8184611956565b9050949350505050565b600080600060608486031215611b4257611b4161183a565b5b6000611b5086828701611a87565b9350506020611b6186828701611a87565b9250506040611b72868287016119d2565b9150509250925092565b600060208284031215611b9257611b9161183a565b5b6000611ba084828501611a87565b91505092915050565b6000602082019050611bbe6000830184611adc565b92915050565b611bcd816118c9565b8114611bd857600080fd5b50565b600081359050611bea81611bc4565b92915050565b60008060408385031215611c0757611c0661183a565b5b6000611c1585828601611a87565b9250506020611c2685828601611bdb565b9150509250929050565b600080fd5b600080fd5b7f4e487b7100000000000000000000000000000000000000000000000000000000600052604160045260246000fd5b611c7282611945565b810181811067ffffffffffffffff82111715611c9157611c90611c3a565b5b80604052505050565b6000611ca4611830565b9050611cb08282611c69565b919050565b600067ffffffffffffffff821115611cd057611ccf611c3a565b5b611cd982611945565b9050602081019050919050565b82818337600083830152505050565b6000611d08611d0384611cb5565b611c9a565b905082815260208101848484011115611d2457611d23611c35565b5b611d2f848285611ce6565b509392505050565b600082601f830112611d4c57611d4b611c30565b5b8135611d5c848260208601611cf5565b91505092915050565b60008060008060808587031215611d7f57611d7e61183a565b5b6000611d8d87828801611a87565b9450506020611d9e87828801611a87565b9350506040611daf878288016119d2565b925050606085013567ffffffffffffffff811115611dd057611dcf61183f565b5b611ddc87828801611d37565b91505092959194509250565b600067ffffffffffffffff821115611e0357611e02611c3a565b5b611e0c82611945565b9050602081019050919050565b6000611e2c611e2784611de8565b611c9a565b905082815260208101848484011115611e4857611e47611c35565b5b611e53848285611ce6565b509392505050565b600082601f830112611e7057611e6f611c30565b5b8135611e80848260208601611e19565b91505092915050565b60008060008060808587031215611ea357611ea261183a565b5b6000611eb187828801611a87565b9450506020611ec2878288016119d2565b9350506040611ed3878288016119d2565b925050606085013567ffffffffffffffff811115611ef457611ef361183f565b5b611f0087828801611e5b565b91505092959194509250565b60008060408385031215611f2357611f2261183a565b5b6000611f3185828601611a87565b9250506020611f4285828601611a87565b9150509250929050565b7f4e487b7100000000000000000000000000000000000000000000000000000000600052602260045260246000fd5b60006002820490506001821680611f9357607f821691505b602082108103611fa657611fa5611f4c565b5b50919050565b6000606082019050611fc16000830186611a46565b611fce6020830185611adc565b611fdb6040830184611a46565b949350505050565b7f4e487b7100000000000000000000000000000000000000000000000000000000600052601160045260246000fd5b600061201d826119b1565b91507fffffffffffffffffffffffffffffffffffffffffffffffffffffffffffffffff820361204f5761204e611fe3565b5b600182019050919050565b60008190508160005260206000209050919050565b60006020601f8301049050919050565b600082821b905092915050565b6000600883026120bc7fffffffffffffffffffffffffffffffffffffffffffffffffffffffffffffffff8261207f565b6120c6868361207f565b95508019841693508086168417925050509392505050565b6000819050919050565b60006121036120fe6120f9846119b1565b6120de565b6119b1565b9050919050565b6000819050919050565b61211d836120e8565b6121316121298261210a565b84845461208c565b825550505050565b600090565b612146612139565b612151818484612114565b505050565b5b818110156121755761216a60008261213e565b600181019050612157565b5050565b601f8211156121ba5761218b8161205a565b6121948461206f565b810160208510156121a3578190505b6121b76121af8561206f565b830182612156565b50505b505050565b600082821c905092915050565b60006121dd600019846008026121bf565b1980831691505092915050565b60006121f683836121cc565b9150826002028217905092915050565b61220f826118ff565b67ffffffffffffffff81111561222857612227611c3a565b5b6122328254611f7b565b61223d828285612179565b600060209050601f831160018114612270576000841561225e578287015190505b61226885826121ea565b8655506122d0565b601f19841661227e8661205a565b60005b828110156122a657848901518255600182019150602085019450602081019050612281565b868310156122c357848901516122bf601f8916826121cc565b8355505b6001600288020188555050505b505050505050565b600081905092915050565b60006122ee826118ff565b6122f881856122d8565b935061230881856020860161191b565b80840191505092915050565b600061232082856122e3565b915061232c82846122e3565b91508190509392505050565b600081519050919050565b600082825260208201905092915050565b600061235f82612338565b6123698185612343565b935061237981856020860161191b565b61238281611945565b840191505092915050565b60006080820190506123a26000830187611a46565b6123af6020830186611a46565b6123bc6040830185611adc565b81810360608301526123ce8184612354565b905095945050505050565b6000815190506123e881611870565b92915050565b6000602082840312156124045761240361183a565b5b6000612412848285016123d9565b91505092915050565b7f4e487b7100000000000000000000000000000000000000000000000000000000600052601260045260246000fd5b600060408201905061245f6000830185611a46565b61246c6020830184611adc565b939250505056fea2646970667358221220b5aebc70815c354128ab7f7fcb8fe2774d8df450db6fecfbf0fbed3b251f907664736f6c63430008140033",
  "linkReferences": {},
  "deployedLinkReferences": {}
}